:100000000C943A000C9457000C9457000C94570031
:100010000C9457000C9457000C9457000C94570004
:100020000C9457000C9457000C9457000C945700F4
:100030000C9457000C9457000C9457000C945700E4
:100040000C9457000C9457000C9457000C945700D4
:100050000C9457000C9457000C9457000C945700C4
:100060000C9457000C9457006364696E6F7073753D
:1000700078585B0011241FBECFEFD8E0DEBFCDBFA4
:1000800011E0A0E0B1E0E0E6F2E102C005900D92DF
:10009000A232B107D9F721E0A2E2B1E001C01D927E
:1000A000A633B207E1F70E9479000C942E090C9454
:1000B00000009091C00095FFFCCF8093C60080E0C7
:1000C00090E008958091C00087FFFCCF8091C6002A
:1000D00090E0089587E690E09093C5008093C40077
:1000E0001092C00088E18093C10086E08093C20036
:1000F0000895CF93DF93CDB7DEB7A1970FB6F894ED
:10010000DEBF0FBECDBF87E690E09093C500809321
:10011000C4001092C00088E18093C10086E0809303
:10012000C20082E291E029E530E030932B01209378
:100130002A0122E630E030932D0120932C0123E0A8
:100140002093250110922F0110922E0190933501DA
:100150008093340190933301809332019093310165
:10016000809330018E01035F1F4F1E8B0D8BCE01DC
:1001700009969C8B8B8BFE013596FA8BE98BFE8959
:10018000FF93ED88EF9200E011E01F930F930E9420
:100190006C038C898F939B899F931F930F930E946D
:1001A0006C03FA89FF93E988EF921F930F930E94E3
:1001B0006C0301E010E00C0F1D1F1F930F9380E0F4
:1001C00091E09F938F930E946C038D859E85AF85F0
:1001D000B8896C017D01FF0CCC08DC2C76019C01F8
:1001E000AD016C2D7C2D8C2D9C2D00E20E94FE0219
:1001F00049845A846B847C8483017201110FEE0858
:10020000FE2C8701EF8AF88E098F1A8F5201630145
:10021000EF88FE2C0E2D1E2D0E9435032F8B3B8F59
:100220004C8F5D8F6E8F7F8F88A399A38D819E8168
:10023000AF81B8856C017D01FF0CCC08DC2C760108
:100240009C01AD016C2D7C2D8C2D9C2D00E20E941B
:10025000FE02E980FA800B811C8127013801770CAE
:100260004408542C320157016801E42CF42C042D6D
:10027000142D0E94350319012A013B014C012F89DD
:100280003B8D4C8D5D8D6E8D7F8D88A199A1510127
:100290006201730184010E9435035F934F933F9382
:1002A0002F9300E20E9417035F934F933F932F9386
:1002B0001F92BBE2FB2EFF9204E011E01F930F930D
:1002C0000E9456032F893B8D4C8D5D8D6E8D7F8DE9
:1002D00088A199A1F72C84010E943E035F934F935C
:1002E0003F932F9300E20E9417035F934F933F9336
:1002F0002F931F928DE28F93E4E0F1E0FF93EF9351
:100300000E945603E62C082D2F893B8D4C8D5D8D68
:100310006E8D7F8D88A199A10E94CE010FB6F894B1
:10032000DEBF0FBECDBF5F934F933F932F9300E28D
:100330000E9417035F934F933F932F931F921AE2EC
:100340001F9384E091E09F938F930E945603840152
:100350002F893B8D4C8D5D8D6E8D7F8D88A199A1F0
:100360000E9429025F934F933F932F9300E20E94D4
:1003700017035F934F933F932F931F92FFE2FF93D7
:1003800014E0E12E11E0F12EFF92EF920E9456034D
:100390000FB6F894DEBF0FBECDBFF1CEDF93CF9383
:1003A0001F930F939A9DF02D219FF00D8B9DF00DC3
:1003B0008A9DE02DF10D039FF00D029FE00DF11DD0
:1003C0004E9DE00DF11D5E9DF00D4F9DF00D7F9354
:1003D0006F93BF92AF925F934F93D5010E944703F3
:1003E0008B01AC01D7010E944703EB01E80FF91F15
:1003F000D6010E941E022F913F91D6010E94470311
:10040000C60FD71FE81FF91FAF91BF910E941E02B0
:100410002F913F910E944703C60FD71FE81FF91F76
:10042000D6010E944703E60FF71F9801BE01CF01D6
:1004300011240F911F91CF91DF9108950E944703DE
:10044000460F571FC81FD91F08F4319608956894A6
:1004500001C0E894F92FF12B12F00C945B02A0E09C
:10046000B0E0E5E3F2E00C94CD02092E059422F40D
:100470000E94B702112392F4F0E80F26FFEFE094F8
:10048000F09400951095B094C094D094A194BF0AB4
:10049000CF0ADF0AEF0AFF0A0F0B1F0B0E9466024A
:1004A00007FC0E94B702CDB7DEB7ECE00C94E9027E
:1004B000689401C0E8948F929F92CF93DF930E943B
:1004C0006602DF91CF919F908F90089588249924A0
:1004D000F401E401B0E49F93AA279A158B049C04CD
:1004E000ED05FE05CF05D007A10798F4AD2FDC2F51
:1004F000CF2FFE2FE92D982C892E982F872F762F1E
:10050000652F542F432F322F2227B85031F7BF9138
:1005100027C01B2EBF91BB27220F331F441F551F1F
:10052000661F771F881F991F881C991CEE1FFF1FCD
:10053000CC1FDD1FAA1FBB1F8A149B04EC05FD0501
:10054000CE05DF05A007B10748F08A189B08EC0923
:10055000FD09CE09DF09A00BB10B21601A94E1F669
:100560002EF49401AF01BE01CD01000C08956095F9
:1005700070958095909530954095509521953F4F79
:100580004F4F5F4F6F4F7F4F8F4F9F4F08952F9269
:100590003F924F925F926F927F928F929F92AF9213
:1005A000BF92CF92DF92EF92FF920F931F93CF9360
:1005B000DF93CDB7DEB7CA1BDB0B0FB6F894DEBFF7
:1005C0000FBECDBF09942A88398848885F846E841D
:1005D0007D848C849B84AA84B984C884DF80EE8067
:1005E000FD800C811B81AA81B981CE0FD11D0FB670
:1005F000F894DEBF0FBECDBFED0108950F93083014
:1006000090F0982F872F762F652F542F432F322F5E
:1006100022270850F4CF220F331F441F551F661F97
:10062000771F881F991F0A95B2F70F91089597FBBE
:1006300010F8169400080F93083098F00850232FF4
:10064000342F452F562F672F782F892F902DF4CFD9
:10065000059497958795779567955795479537951D
:1006600027950A95AAF70F9108952A0D3B1D4C1D59
:100670005D1D6E1D7F1D801F911F08952A193B0966
:100680004C095D096E097F09800B910B0895A29FAB
:10069000B001B39FC001A39F700D811D1124911D56
:1006A000B29F700D811D1124911D0895A0E0B0E04E
:1006B000ECE5F3E00C94D702AE014B5F5F4FFA011B
:1006C00061917191AF0180913201909133010E944B
:1006D0008203E2E00C94F302A0E0B0E0E2E7F3E092
:1006E0000C94D702AE014B5F5F4FFA01619171919B
:1006F000AF0180913001909131010E94FF06E2E04C
:100700000C94F302ABE0B0E0E8E8F3E00C94C7022D
:100710006C017B018A01FC0117821682838181FFB3
:10072000CCC1CE0101963C01F6019381F70193FD06
:10073000859193FF81917F01882309F4BAC18532A5
:1007400039F493FD859193FF81917F01853229F4DE
:10075000B60190E00E947808E7CF912C212C312C33
:10076000FFE1F315D8F08B3279F038F4803279F06C
:100770008332A1F4232D20611DC08D3261F08033BE
:1007800069F4232D216016C0832D8260382EE32D5D
:10079000E4603E2E2AC0F32DF8601DC037FC2DC04A
:1007A00020ED280F2A3040F08E32B9F436FC81C19A
:1007B000232D2064322E19C036FE06C08AE0989E92
:1007C000200D1124922E11C0EAE02E9E200D11243E
:1007D000222EF32DF0623F2E08C08C3621F4832D9B
:1007E0008068382E02C0883641F4F70193FD859168
:1007F00093FF81917F018111B3CF982F9F7D9554F5
:10080000933028F40C5F1F4F9FE399830DC083360C
:1008100031F0833771F0833509F059C021C0F801F8
:10082000808189830E5F1F4F88248394912C53010C
:1008300013C02801F2E04F0E511CF801A080B180D6
:1008400036FE03C0692D70E002C06FEF7FEFC50177
:100850000E942F084C018201F32DFF773F2E16C016
:10086000280122E0420E511CF801A080B18036FE22
:1008700003C0692D70E002C06FEF7FEFC5010E94D9
:1008800024084C01F32DF0683F2E820133FC1BC07D
:10089000822D90E088169906B0F4B60180E290E0CF
:1008A0000E9478082A94F4CFF50137FC859137FE31
:1008B00081915F01B60190E00E94780821102A948E
:1008C00021E0821A91088114910471F7E8C08436FE
:1008D00011F0893641F5F80137FE07C0608171815A
:1008E000828193810C5F1F4F08C060817181072E48
:1008F000000C880B990B0E5F1F4FF32DFF763F2ED8
:1009000097FF09C090958095709561957F4F8F4FA7
:100910009F4FF0683F2E2AE030E0A3010E94CD08EF
:10092000882E861845C0853731F4232D2F7EB22EB0
:100930002AE030E025C0932D997FB92E8F36C1F083
:1009400018F4883579F0B5C0803719F0883721F070
:10095000B0C0E92FE061BE2EB4FE0DC0FB2DF460E7
:10096000BF2E09C034FE0AC0292F2660B22E06C051
:1009700028E030E005C020E130E002C020E132E0B4
:10098000F801B7FE07C060817181828193810C5F9D
:100990001F4F06C06081718180E090E00E5F1F4FA5
:1009A000A3010E94CD08882E8618FB2DFF773F2ECD
:1009B00036FE0DC0232D2E7FA22E891458F434FE4E
:1009C0000BC032FC09C0832D8E7EA82E05C0B82C2A
:1009D000A32C03C0B82C01C0B92CA4FE0FC0FE018B
:1009E000E80DF11D8081803321F49A2D997EA92E86
:1009F00009C0A2FE06C0B394B39404C08A2D8678C1
:100A000009F0B394A3FC11C0A0FE06C0B21488F490
:100A1000280C922C9B180EC0B21460F4B60180E230
:100A200090E00E947808B394F7CFB21418F42B1812
:100A300002C0982C212CA4FE10C0B60180E390E0E7
:100A40000E947808A2FE17C0A1FC03C088E790E0CE
:100A500002C088E590E0B6010CC08A2D867859F076
:100A6000A1FE02C08BE201C080E2A7FC8DE2B601CC
:100A700090E00E947808891438F4B60180E390E091
:100A80000E9478089A94F7CF8A94F301E80DF11D3B
:100A90008081B60190E00E9478088110F5CF222075
:100AA00009F442CEB60180E290E00E9478082A94D0
:100AB000F6CFF6018681978102C08FEF9FEF2B96CC
:100AC000E2E10C94E30220FD09C0FC0123FD05C016
:100AD00022FF02C07383628351834083089544FDE3
:100AE00017C046FD17C0AB01BC01DA01FB01AA0F1C
:100AF000BB1FEE1FFF1F1094D1F74A0F5B1F6E1F25
:100B00007F1FCB01BA01660F771F881F991F09C08D
:100B100033E001C034E0660F771F881F991F315002
:100B2000D1F7620F711D811D911D08950F931F93C1
:100B3000CF93DF938C01C8010E943A08EC0197FD26
:100B400008C00E941008892BB1F7B801CE010E949D
:100B5000B408CE01DF91CF911F910F9108958F922C
:100B60009F92AF92BF92EF92FF920F931F93CF93FA
:100B7000DF938C01D62F7A01B22E0E943A089C0195
:100B800033272B32310531F02D32310561F48B2DB5
:100B90008068B82ED15011F480E068C0C8010E946E
:100BA0003A0897FDF9CFCB2DCD7F2B2D207309F57A
:100BB0008033F9F4AA24AA94AD0E09F443C0C80105
:100BC0000E943A0897FD3EC09C012F7D33272835AF
:100BD000310549F4C264D250A9F1C8010E943A0813
:100BE00097FF07C02FC0B6FE02C0C26001C0C2613D
:100BF000DA2D812C912C540120ED280F283080F023
:100C0000C4FF04C0B8010E94B40819C02A3040F0E3
:100C1000C6FFF8CF2F7D3FEE320F363098F72750C2
:100C20004C2FC501B4010E946F054B015C01C260ED
:100C3000D15059F0C8010E943A0897FFDDCFC1FD9D
:100C400004C0AACF812C912C5401C7FF08C0B094D6
:100C5000A09490948094811C911CA11CB11C2C2FF9
:100C6000B501A401C7010E94630581E0DF91CF9126
:100C70001F910F91FF90EF90BF90AF909F908F903A
:100C80000895A0E2B0E0E7E4F6E00C94CA025C014B
:100C9000962E7A01F9018E010F5F1F4F680180E2E5
:100CA000D8011D928A95E9F7D50113968C9080E0C2
:100CB00090E0612C712C30E061E070E083FC2591C4
:100CC00083FE21918F01522E211103C080E090E01C
:100CD00092C02E3511F4009751F1432F50E0481780
:100CE00059073CF42D3559F12D3219F4772009F1CB
:100CF00003C0772009F46AC0452D46954695469570
:100D0000D601A40FB11D452D47708B0102C0000F05
:100D1000111F4A95E2F7A8015C91452B4C9365148D
:100D200059F0561410F45394E7CF5A94E5CF31E0BC
:100D300004C07724739401C0712C0196BFCF772033
:100D400019F08E8180628E83311103C088248394D0
:100D500017C0F6019E012F5D3F4F808180958193E2
:100D60002E173F07D1F7F2CFE114F10429F0D70194
:100D70008C93F70131967F019A94812C9920F9F098
:100D8000C5010E943A0897FD18C0FC01FF2723E027
:100D9000F595E7952A95E1F7EC0DFD1D208130E0F2
:100DA000AC014770552702C0359527954A95E2F763
:100DB00020FDDACFB5010E94B408811087CFE1147D
:100DC000F10411F0D7011C92C80115C0422F4695BD
:100DD00046954695D601A40FB11D422F47708B0151
:100DE00002C0000F111F4A95E2F7A8015C91452B44
:100DF0004C93622EA2CFA096EFE00C94E602A0E006
:100E0000B0E0E5E0F7E00C94CA026C01EB015A0196
:100E1000FC0117821682512CF601E380FE01E3FCEF
:100E20008591E3FE8191182FEF01882309F4EEC02C
:100E300090E00E941008892B21F0C6010E949605BF
:100E4000EBCF153241F4FE01E3FC1591E3FE119165
:100E5000EF01153281F4C6010E943A0897FDD4C013
:100E6000412F50E09C01332724173507A9F2B60122
:100E70000E94B408CBC01A3239F4E3FC1591E3FEAA
:100E80001191EF0101E001C000E0F12C20ED210FF4
:100E90002A3080F402606F2D70E080E090E040E244
:100EA0000E946F05F62EFE01E3FC1591E3FE119101
:100EB000EF01ECCF01FF03C0F11003C0A7C0FF2476
:100EC000FA94183619F01C3651F010C0FE01E3FCFC
:100ED0001591E3FE1191EF01183641F408600460AA
:100EE000FE01E3FC1591E3FE1191EF01112309F4DA
:100EF0008DC0612F70E088E690E00E941908892B70
:100F000009F484C000FD07C0F50180809180C5010F
:100F100002965C0102C0812C912C1E3651F4F60120
:100F20004681578160E070E0202FC4010E94630574
:100F300073CF1336A9F401FD02C0FF24F394C60158
:100F40000E943A0897FD60C08114910429F0F401D1
:100F50008083C40101964C01FA94F110F0CF50C087
:100F60001B3559F49E01A4016F2DC6010E94410654
:100F7000EC01892B09F044C03EC0C6010E949605D1
:100F800097FD42C01F3661F128F4143639F1193645
:100F900051F128C0133771F0153701F123C08114C6
:100FA000910429F0F4016082C40101964C01FA9485
:100FB000FF2071F0C6010E943A083C0197FD08C06D
:100FC0000E941008892B59F3B601C3010E94B4088E
:100FD00081149104A9F0F401108212C0006203C0D0
:100FE000006101C00064202FA4016F2DC6010E9482
:100FF000AF05811105C0F6018381807329F406C015
:1010000000FD0ACF539408CF552019F0852D90E0AC
:1010100002C08FEF9FEFCDB7DEB7EFE00C94E60292
:1010200091110C942B09803219F089508550C8F722
:101030000895FC010590061621F00020D9F7C001A3
:1010400008953197CF010895FC01059061507040DB
:101050000110D8F7809590958E0F9F1F0895FC0181
:101060006150704001900110D8F7809590958E0FD7
:101070009F1F0895CF93DF93EC012B8120FF33C096
:1010800026FF0AC02F7B2B838E819F8101969F8331
:101090008E838A8190E029C022FF0FC0E881F98108
:1010A0008081082E000C990B009719F420622B8385
:1010B0001AC03196F983E8830EC0EA85FB8509954D
:1010C00097FF09C02B81019611F080E201C080E1F9
:1010D000822B8B8308C02E813F812F5F3F4F3F8340
:1010E0002E83992702C08FEF9FEFDF91CF91089554
:1010F0000F931F93CF93DF93FB01238121FD03C047
:101100008FEF9FEF2CC022FF16C0468157812481AC
:1011100035814217530744F4A081B1819D012F5FAF
:101120003F4F318320838C93268137812F5F3F4F40
:101130003783268314C08B01EC01FB010084F18509
:10114000E02D0995892BE1F6D80116968D919C9199
:101150001797019617969C938E931697CE01DF9161
:10116000CF911F910F910895FB01238120FF12C0A1
:1011700026FD10C08F3F3FEF930761F082832F7DE4
:1011800020642383268137812150310937832683C8
:10119000992708958FEF9FEF0895FA01AA27283025
:1011A00051F1203181F1E8946F936E7F6E5F7F4F34
:1011B0008F4F9F4FAF4FB1E03ED0B4E03CD0670FB0
:1011C000781F891F9A1FA11D680F791F8A1F911D03
:1011D000A11D6A0F711D811D911DA11D20D009F453
:1011E00068943F912AE0269F11243019305D319395
:1011F000DEF6CF010895462F4770405D4193B3E07E
:101200000FD0C9F7F6CF462F4F70405D4A3318F024
:10121000495D31FD4052419302D0A9F7EACFB4E0D5
:10122000A6959795879577956795BA95C9F700978D
:101230006105710508959B01AC010A2E069457952E
:10124000479537952795BA95C9F7620F731F841F85
:10125000951FA01D0895992788270895F894FFCF1A
:10126000256C640057796E696B206F7065726163DD
:101270006A692025633A09256C6420256C640D0A8F
:0212800000006C
:00000001FF
