:100000000C9434000C9451000C9451000C94510049
:100010000C9451000C9451000C9451000C9451001C
:100020000C9451000C9451000C9451000C9440120B
:100030000C9451000C9451000C9451000C945100FC
:100040000C9451000C9451000C9451000C945100EC
:100050000C9451000C942F010C9451000C945100FD
:100060000C9451000C94510011241FBECFEFD8E026
:10007000DEBFCDBF11E0A0E0B1E0EAE9FBE202C0E3
:1000800005900D92A434B107D9F727E0A4E4B1E0BC
:1000900001C01D92A03DB207E1F70E9443120C94EB
:1000A000CB150C940000CF93C82F8091C00085FD24
:1000B00003C00E948B11F9CFC093C60080E090E08E
:1000C000CF9108958091C00087FD03C00E948B11DD
:1000D000F9CF8091C60090E00895CF93DF93C82FA9
:1000E0006FEF7FEF8091C4079091C5070E94E80BE6
:1000F000ECE7F0E08081807F80838081C82BC08323
:10010000EAE7F0E0808180648083C0917800D0913C
:10011000790020E040E050E060E070E08091C407AA
:100120009091C5070E946E0ACE01DF91CF9108958C
:10013000CF93DF93CDB7DEB72A970FB6F894DEBF23
:100140000FBECDBFD82ECE0101967C010EE011E08E
:100150008D2D0E946D004AE050E0B7010E94AD1263
:10016000FF92EF921F930F930E94DD1280ED97E0B4
:100170000E9488050F900F900F900F90E9CFCF93BA
:10018000DF93CDB7DEB72A970FB6F894DEBF0FBE68
:10019000CDBFD82ECE0101967C0109E111E08D2D55
:1001A0000E946D004AE050E0B7010E94AD12FF923C
:1001B000EF921F930F930E94DD1280E991E00E945D
:1001C00088050F900F900F900F90E9CFCF93DF939A
:1001D000CDB7DEB72A970FB6F894DEBF0FBECDBFFE
:1001E000D82ECE0101967C0104E211E08D2D0E94F3
:1001F0006D004AE050E0B7010E94AD12FF92EF920D
:100200001F930F930E94DD1284EF91E00E948805F6
:100210000F900F900F900F90E9CF1092C50087E6D6
:100220008093C400E0ECF0E080818D7F808386E0E5
:100230008093C20088E18093C100089580E4809398
:100240007C0087E080937E00EAE7F0E08083808195
:1002500080688083808188608083089508951F92DC
:100260000F920FB60F9211242F933F934F935F93EA
:100270006F937F938F939F93AF93BF93EF93FF936E
:1002800020E040E050E060E070E08091C60790918F
:10029000C7070E946E0AFF91EF91BF91AF919F91A6
:1002A0008F917F916F915F914F913F912F910F901F
:1002B0000FBE0F901F901895E0917201F09173019D
:1002C0008081811103C08FEF9FEF0CC0E09172011C
:1002D000F09173010580F681E02D0680F781E02D15
:1002E0008281938190934A01809349010895FF92FE
:1002F0000F931F93CF93DF93EC01F62E00915101E2
:1003000010915201809144019091450102960E9402
:10031000B30ECF3F8FEFD80789F4FF2079F06091BB
:100320004401709145016E5F7F4F84E591E0DF915C
:10033000CF911F910F91FF900C945A0EC00FD11FB7
:10034000E0914401F0914501D383C283609144015F
:1003500070914501C017D10768F4809170019091A8
:1003600071016E5F7F4FDF91CF911F910F91FF90D1
:100370000C947B0E80917201909173016E5F7F4FA0
:100380000E947B0E8091490190914A01C817D907BC
:1003900020F4D0934A01C0934901DF91CF911F917E
:1003A0000F91FF90089580915D01882309F10FB6A8
:1003B000F8940F92E0916301F0916401C681D781B6
:1003C000CE0102960E94B30E80915301815080931A
:1003D000530180915D01815080935D010F900FBEAC
:1003E0008F89988D0E94CF10CE010E94CF10DBCF55
:1003F00080918601823010F00E948B110E942E01A4
:10040000D2CF3F924F925F926F927F928F929F9244
:10041000AF92BF92CF92DF92EF92FF920F931F9312
:10042000CF93DF934C01162F372E6A015901CA0171
:100430000E949D102C01892B09F4D1C086E290E026
:100440000E949D10EC01892B79F0588E4F8AC601CD
:1004500001973201680E791EBE01675E7F4FE12F62
:10046000F32DCF01089607C0C2010E94CF10B7C07C
:10047000E817F90749F09F014191DB014D93BD0158
:10048000D9012C912111F4CF18A2043008F003E017
:100490000E8B6E01B2E0CB0ED11CC6010E94560E2F
:1004A000CE010C960E94560ED987C88784E090E052
:1004B000801B91099D878C87DB8BCA8B19A21AA29E
:1004C0001BA21CA21DA2A501B401C3010E94DE1043
:1004D00099838883E114F10419F0F701D183C08373
:1004E0000FB6F8940F92809153018F5F8093530160
:1004F0008091440190914501892BD1F5D09345011C
:10050000C093440180915301813009F041C086E8D5
:1005100091E00E94480E8FE891E00E94480E88E921
:1005200091E00E94480E81EA91E00E94480E8DE71A
:1005300091E00E94480E84E791E00E94480E87E611
:1005400091E00E94480E8EE591E00E94480E84E5FD
:1005500091E00E94480E8DE791E0909373018093A3
:10056000720184E791E0909371018093700110C053
:1005700080914F0181110CC0E0914401F09145013F
:1005800096898E89891720F0D0934501C093440144
:1005900080914B018F5F80934B018E899091500128
:1005A000981710F480935001F9E08F9FC001112437
:1005B000B6018A579E4F0E945A0E0F900FBE80912F
:1005C0004F01882351F0E0914401F0914501968953
:1005D0008E89981710F40E948B1181E001C08FEF73
:1005E000DF91CF911F910F91FF90EF90DF90CF900F
:1005F000BF90AF909F908F907F906F905F904F9043
:100600003F9008950F931F93CF93DF93EC010FB6A4
:10061000F8940F92892B21F4C0914401D0914501A7
:100620008E010E5F1F4FC8010E94B30E8C899D89F9
:10063000892B21F0CE010C960E94B30E80914B01C4
:100640008F5F80934B018091440190914501C817C1
:10065000D90759F4B8018EE591E00E945A0E8091B5
:100660005D018F5F80935D010EC0809153018150C9
:10067000809353018F89988D0E94CF10CE010E94E4
:10068000CF100E945C010F900FBE80914F01882314
:1006900049F08091440190914501C817D90711F4A0
:1006A0000E948B11DF91CF911F910F9108950F93AD
:1006B0001F93CF93DF93209144013091450182171E
:1006C0009307B9F10097A9F10FB6F8940F92FC01C6
:1006D000228533852455314051F5FC012489358923
:1006E000F1E027363F0719F1232B09F5EC018C01C6
:1006F0000E5F1F4FC8010E94B30E8E89909150016A
:10070000981710F48093500129E0829FC0011124B2
:10071000B8018A579E4F0E945A0EE0914401F09111
:1007200045019E898689981710F00E948B110F90C1
:100730000FBEDF91CF911F910F910895EF92FF921D
:100740001F93CF93DF93EC018A859B85845591405D
:1007500099F48C899D8921E08736920769F0892B6D
:1007600059F480914601882349F0BE01645F7F4FB0
:1007700087E691E00E945A0E10E021C0E09144010A
:10078000F091450111E09E898689981708F410E0E0
:100790007E0182E0E80EF11CC7010E94B30E8E8933
:1007A00090915001981710F48093500129E0829F96
:1007B000C0011124B7018A579E4F0E945A0E812F03
:1007C000DF91CF911F91FF90EF900895EF92FF92EC
:1007D0000F9387E4E82E81E0F82E00E020E030E07F
:1007E00045E550E06EE371E083ED91E00E94010287
:1007F000813091F4F8942FEF3FEF30934A0120932A
:10080000490180934F0110925201109251010F91B2
:10081000FF90EF900C944A110F91FF90EF90089584
:10082000F89410924F010C948A11809146018F5FC9
:100830008093460108950FB6F8940F92809151016C
:10084000909152010F900FBE0895809151019091A7
:1008500052010895809153010895009721F48091E9
:1008600044019091450149960895CF92DF92EF920D
:10087000FF920F931F93CF93DF93809146018111D5
:100880008CC000915101109152010F5F1F4F1093C6
:1008900052010093510101151105B9F480917201C3
:1008A0009091730120917001309171013093730127
:1008B00020937201909371018093700180914C019B
:1008C0008F5F80934C010E945C018091490190915F
:1008D0004A01C0E00817190708F44FC0D9E0E091B9
:1008E0007201F09173018081811103C08FEF9FEF3E
:1008F00011C0E0917201F09173010580F681E02D45
:10090000E680F780D70112968D919C911397081776
:10091000190728F490934A01809349012EC067017A
:10092000B2E0CB0ED11CC6010E94B30EF701848940
:100930009589892B21F0C7010C960E94B30ED7012F
:1009400056968C9190915001981710F48093500115
:10095000D89FC0011124B6018A579E4F0E945A0E9B
:10096000E0914401F0914501D70156969C9186890A
:10097000981708F4B4CFC1E0B2CFE0914401F091F0
:100980004501E689B9E0EB9FF0011124EA57FE4FDB
:100990008081823040F0C1E006C080914E018F5FBF
:1009A00080934E01C0E080914D018111C1E08C2FF8
:1009B000DF91CF911F910F91FF90EF90DF90CF903B
:1009C0000895EF92FF920F931F93CF93DF930FB68B
:1009D000F8940F9280914601815080934601809156
:1009E0004601882311F080E052C080915301882392
:1009F000D1F3C0E0D0E089E0F82EEE24E3948091BA
:100A00006701882351F1E0916C01F0916D01C6817D
:100A1000D781CE010C960E94B30E8E010E5F1F4F40
:100A2000C8010E94B30E8E8990915001981710F45E
:100A300080935001F89EC0011124B8018A579E4F3F
:100A40000E945A0EE0914401F09145019E898689E9
:100A50009817A8F2E0924D01D2CFCD2B11F00E9451
:100A60005C01C0914E01CC2351F0D1E00E943504CD
:100A70008111D0934D01C150C9F710924E01809160
:100A80004D01882309F4AFCF0E948B1181E00F90B4
:100A90000FBEDF91CF911F910F91FF90EF900895BE
:100AA0000F931F93CF93DF938C01EB010E941504EA
:100AB0004091510150915201F80120813181C901C9
:100AC0008C0F9D1F4217530720F48217930740F4A1
:100AD00003C08217930730F021E04817590718F038
:100AE00020E001C021E0F80191838083222329F0D6
:100AF00060E0841B950B0E9477010E94E104811144
:100B000002C00E948B11DF91CF911F910F91089528
:100B1000CF93DF93EC01892B19F40E948B110AC04B
:100B20000E94150460E0CE010E9477010E94E1045A
:100B3000882399F3DF91CF9108958091460188230E
:100B400021F081E080934D01089510924D01809134
:100B5000500169E0482F50E0649F9001659F300D7F
:100B60001124F901EA57FE4F9081911102C0815082
:100B7000F1CFA181B28112960D90BC91A02DB283CC
:100B8000A18327573E4FA217B30731F412962D9138
:100B90003C9113973283218399E0949FF001959FB4
:100BA000F00D1124EA57FE4F0180F281E02D2681DD
:100BB000378130934501209344018093500108957B
:100BC0000F931F93CF93DF93EC010FB6F8940F921E
:100BD000892B21F4C0914401D09145018E010E5F13
:100BE0001F4FC8010E94B30E8C899D89892B21F06B
:100BF000CE010C960E94B30EB80184E591E00E94EC
:100C00005A0E8DA1813009F41DA20F900FBE809164
:100C10004F01882339F00FB6F8940F920E945C01BF
:100C20000F900FBE8091440190914501C817D907DC
:100C3000C1F480914F01882319F00E948B1111C0DB
:100C40009091540180915301981305C01092450171
:100C50001092440106C0DF91CF911F910F910C9427
:100C60009D05DF91CF911F910F910895CF93DF9351
:100C7000EB016091440170914501645F7F4F0E94D8
:100C80007B0E61E0CE01DF91CF910C947701CF9381
:100C9000DF93EA01E0914401F091450170687587A6
:100CA00064876091440170914501645F7F4F0E94A9
:100CB0005A0E61E0CE01DF91CF910C9477010F9332
:100CC0001F93CF93DF93DC011596ED91FC9116975E
:100CD000C681D7818E01045F1F4FC8010E94B30EE9
:100CE00080914601811114C00A501109C8010E9467
:100CF000B30E8E8990915001981710F48093500193
:100D0000B9E08B9FC0011124B8018A579E4F03C0E0
:100D1000B80187E691E00E945A0EE0914401F091FB
:100D200045019E898689891720F481E080934D01D1
:100D300001C080E0DF91CF911F910F9108950F9333
:100D40001F93CF93DF937068FC0171836083C6812A
:100D5000D7810E94B30E8E010E5F1F4FC8010E9403
:100D6000B30E8E8990915001981710F48093500122
:100D7000F9E08F9FC0011124B8018A579E4F0E944D
:100D80005A0EE0914401F09145019E8986898917A8
:100D900018F481E080934D01DF91CF911F910F9165
:100DA00008950FB6F8940F9220914C01FC01208316
:100DB0002091510130915201328321830F900FBE57
:100DC000089520914C01FC01208320915101309124
:100DD0005201328321830895CF93DF930FB6F894A5
:100DE0000F924091510150915201DB012D913C91A4
:100DF0002F3FBFEF3B07D9F0EC01E981FA81A091C9
:100E00004C01B881BA1719F04E175F0790F44E1BCA
:100E10005F0BFB014217530738F4241B350B31835A
:100E200020830E94E10603C01182108202C080E08C
:100E300001C081E00F900FBEDF91CF91089581E056
:100E400080934D010895E0914401F091450184851E
:100E50009585E0914401F0914501A0914401B09144
:100E6000450156964C9124E030E0241B310935872A
:100E7000248708950F931F93182FCB010FB6F89472
:100E80000F92E0914401F091450141A152A163A16B
:100E900074A1452B462B472B69F4E0914401F09156
:100EA000450121E025A3009729F061E00E94770128
:100EB0000E948B110F900FBE0FB6F8940F92E09125
:100EC0004401F091450161A172A183A194A1611532
:100ED000710581059105A9F0E0914401F09145016A
:100EE000112329F011A212A213A214A20AC08B018D
:100EF0009C01015011092109310901A312A323A367
:100F000034A3E0914401F091450115A20F900FBE6A
:100F10001F910F9108954F925F926F927F928F92DF
:100F20009F92AF92BF92EF92FF920F931F9349014E
:100F30005A010FB6F8940F92E0914401F0914501E7
:100F400025A1223039F1E0914401F091450121A120
:100F500032A143A154A12B013C01409450946094D0
:100F60007094D301C20182239323A423B52381A3C8
:100F700092A3A3A3B4A3E0914401F091450181E0C1
:100F800085A3E114F10431F061E0C7010E9477010B
:100F90000E948B110F900FBE0FB6F8940F9201159F
:100FA000110569F0E0914401F091450181A192A100
:100FB000A3A1B4A1F80180839183A283B383E091BC
:100FC0004401F091450185A18230C1F4E0914401D2
:100FD000F091450141A152A163A174A1D501C401C1
:100FE00080959095A095B09584239523A623B7234B
:100FF00081A392A3A3A3B4A381E001C080E0E09108
:101000004401F091450115A20F900FBE1F910F9161
:10101000FF90EF90BF90AF909F908F907F906F90D8
:101020005F904F9008950F931F93CF93DF93FC0130
:101030000FB6F8940F920115110549F081A192A104
:10104000A3A1B4A1E80188839983AA83BB8335A1B6
:1010500082E085A3223089F058F4213001F581A186
:1010600092A1A3A1B4A1482B592B6A2B7B2B13C0AF
:10107000233089F0243069F012C081A192A1A3A18C
:10108000B4A10196A11DB11D81A392A3A3A3B4A3F2
:1010900006C0323049F141A352A363A374A3313097
:1010A00009F5EF018F010E5F1F4FC8010E94B30EBB
:1010B0008E8990915001981710F48093500129E087
:1010C000829FC0011124B8018A579E4F0E945A0E78
:1010D000E0914401F09145019E898689891710F4B9
:1010E0000E948B1181E001C080E00F900FBEDF9164
:1010F000CF911F910F910895EF92FF920F931F933D
:10110000CF93DF93FC010115110549F081A192A154
:10111000A3A1B4A1E80188839983AA83BB8335A1E5
:1011200082E085A3223089F058F4213001F581A1B5
:1011300092A1A3A1B4A1482B592B6A2B7B2B13C0DE
:10114000233089F0243069F012C081A192A1A3A1BB
:10115000B4A10196A11DB11D81A392A3A3A3B4A321
:1011600006C03230D9F141A352A363A374A3313036
:1011700011F081E034C0EF0180914601811115C06A
:101180008F010E5F1F4FC8010E94B30E8E89909190
:101190005001981710F480935001E9E08E9FC00130
:1011A0001124B8018A579E4F05C0BF01645F7F4F6D
:1011B00087E691E00E945A0EE0914401F0914501CA
:1011C0009E8986898917A8F6E114F10419F081E057
:1011D000E701888381E080934D0101C080E0DF91C9
:1011E000CF911F910F91FF90EF900895EF92FF9292
:1011F0000F931F93CF93DF93FC0125A182E085A37A
:1012000081A192A1A3A1B4A10196A11DB11D81A3A9
:1012100092A3A3A3B4A32130A1F58B01EF01809188
:101220004601811116C07F0122E0E20EF11CC701C8
:101230000E94B30E8E8990915001981710F48093FC
:101240005001E9E08E9FC0011124B7018A579E4FDB
:1012500005C0BF01645F7F4F87E691E00E945A0E90
:10126000E0914401F09145019E898689891748F4EF
:101270000115110519F081E0F801808381E0809368
:101280004D01DF91CF911F910F91FF90EF90089545
:10129000009721F480914401909145010FB6F89494
:1012A0000F92FC0125A1223019F415A281E001C0A2
:1012B00080E00F900FBE08950FB6F8940F92FC01D6
:1012C000928D0F900FBE81E0911180E008950F93F1
:1012D0001F93CF93DF93EC01042F1A8D4C8D442381
:1012E000B1F150E0011115C08A819B810E94A412C6
:1012F0002C8D8A819B81820F911D9B838A832C81F7
:101300003D818217930718F1888199819B838A8395
:101310001EC08E819F810E94A4128C8D90E09195B9
:10132000819591092E813F81280F391F3F832E839C
:10133000488159812417350730F42C813D81820F73
:10134000931F9F838E83023011F4111111501F5F80
:101350001A8F80E0DF91CF911F910F910895FC01CA
:10136000CB01448D4423A1F050E026813781240F26
:10137000351F37832683648175812617370720F050
:101380002081318137832683668177810C94A41272
:101390000895EF92FF921F93CF93DF93EC010FB666
:1013A000F8940F921E8D7C0181E1E80EF11C11165C
:1013B0005CF48989882341F0C7010E945F0681118E
:1013C0000E941F071150F3CF8FEF8E8F0F900FBE2B
:1013D0000FB6F8940F921D8D7E0188E0E80EF11C87
:1013E00011165CF48885882341F0C7010E945F06CE
:1013F00081110E941F071150F3CF8FEF8D8F0F9037
:101400000FBEDF91CF911F91FF90EF900895CF9382
:10141000DF93EC010FB6F8940F92488159818B8DC0
:101420007C8D9A01879F200D311D11243D832C83D3
:101430001A8E5B834A8390E00197789F9001799F91
:10144000300D1124CA01820F931F9F838E838FEF6B
:101450008D8F8E8F61110CC08885882389F0CE0115
:1014600008960E945F06882359F00E948B1108C0DD
:10147000CE0108960E94480ECE0141960E94480E69
:101480000F900FBE81E0DF91CF9108950F931F93CE
:10149000CF93DF93082F162F662321F0869FC0017C
:1014A000112402C080E090E04F960E949D10EC0154
:1014B000009771F0111103C09983888303C04F9680
:1014C000998388830B8F1C8F61E0CE010E94070AED
:1014D000CE01DF91CF911F910F910895AF92BF92EE
:1014E000CF92DF92FF920F931F93CF93DF9300D0A1
:1014F00000D01F92CDB7DEB78C016B015D834C83AA
:10150000F22E80E0580198E0A90EB11C0FB6F894B5
:101510000F92F801228D938D291718F0F2E0FF1237
:1015200014C04F2DB601C8010E946709F8019189C6
:10153000992321F0C80141960E945F0681110E9403
:101540008B110F900FBE81E050C02C813D81232B69
:1015500019F40F900FBE48C0811104C0CE0101964E
:101560000E94E1060F900FBE0E9415040FB6F8947A
:101570000F92F801858D8F3F09F4158EF801868D45
:101580008F3F09F4168E0F900FBEBE016C5F7F4F28
:10159000CE0101960E94EC06811121C00FB6F8948D
:1015A0000F92F801928D0F900FBE838D981311C08A
:1015B0006C817D81C5010E943606C8010E94C9095F
:1015C0000E94E104882311F081E0A0CF0E948B11DA
:1015D000FBCFC8010E94C9090E94E104F5CFC801F0
:1015E0000E94C9090E94E10480E00F900F900F90C3
:1015F0000F900F90DF91CF911F910F91FF90DF908F
:10160000CF90BF90AF900895EF92FF921F93CF932A
:10161000DF93EC019A8D8B8D981710F02230E1F456
:101620007A011E8D422FCE010E9467091F3F81F46F
:101630008989882379F0CE0141960E945F0688232C
:1016400049F0E114F10431F081E0F701808305C035
:101650001F5F1E8F81E001C080E0DF91CF911F915D
:10166000FF90EF900895CF93DF93FC01928D838DCF
:101670009817C0F4868D9F5F928F8F3F79F4818990
:10168000882371F0EB01CF0141960E945F06882309
:1016900039F0209729F081E0888305C08F5F868F1D
:1016A00081E001C080E0DF91CF910895AF92BF92B9
:1016B000CF92DF92FF920F931F93CF93DF9300D0CF
:1016C00000D01F92CDB7DEB78C016B015D834C83D8
:1016D00080E0580191E1A90EB11C0FB6F8940F9269
:1016E000F801F28CFF20A9F0B601C8010E94AF09F1
:1016F000FA94F801F28E8085882339F0C8010896A3
:101700000E945F0681110E948B110F900FBE81E035
:1017100050C02C813D81232B19F40F900FBE48C07F
:10172000811104C0CE0101960E94E1060F900FBE08
:101730000E9415040FB6F8940F92F801858D8F3F23
:1017400009F4158EF801868D8F3F09F4168E0F90DF
:101750000FBEBE016C5F7F4FCE0101960E94EC066A
:1017600081111CC0C8010E945C09882389F06C812A
:101770007D81C5010E943606C8010E94C9090E94E8
:10178000E104882311F081E0A8CF0E948B11FBCFE8
:10179000C8010E94C9090E94E104F5CFC8010E9456
:1017A000C9090E94E104C8010E945C09882359F319
:1017B00080E00F900F900F900F900F90DF91CF91DE
:1017C0001F910F91FF90DF90CF90BF90AF90089541
:1017D000EF92FF920F931F93CF93DF9300D000D02F
:1017E0001F92CDB7DEB78C017D836C8390E07801CA
:1017F00081E1E80EF11C0FB6F8940F92F801828D8A
:10180000882381F08150828F8085882339F0C80138
:1018100008960E945F0681110E948B110F900FBEE7
:1018200081E050C02C813D81232B19F40F900FBE15
:1018300048C0911104C0CE0101960E94E1060F90AC
:101840000FBE0E9415040FB6F8940F92F801858D13
:101850008F3F09F4158EF801868D8F3F09F4168E9F
:101860000F900FBEBE016C5F7F4FCE0101960E94AC
:10187000EC0681111CC0C8010E945C09882389F014
:101880006C817D81C7010E943606C8010E94C9098A
:101890000E94E104882311F091E0ADCF0E948B11EA
:1018A000FBCFC8010E94C9090E94E104F5CFC8011D
:1018B0000E94C9090E94E104C8010E945C098823B2
:1018C00059F380E00F900F900F900F900F90DF91E1
:1018D000CF911F910F91FF90EF900895CF92DF92DB
:1018E000EF92FF920F931F93CF93DF9300D000D01E
:1018F0001F92CDB7DEB78C017B015D834C8380E006
:10190000680191E1C90ED11C0FB6F8940F92F8014D
:10191000928D9923B9F0C680D780B701C8010E9483
:10192000AF09F801D782C6828189882339F0C801BE
:1019300041960E945F0681110E948B110F900FBE8D
:1019400081E050C02C813D81232B19F40F900FBEF4
:1019500048C0811104C0CE0101960E94E1060F909B
:101960000FBE0E9415040FB6F8940F92F801858DF2
:101970008F3F09F4158EF801868D8F3F09F4168E7E
:101980000F900FBEBE016C5F7F4FCE0101960E948B
:10199000EC0681111CC0C8010E945C09882389F0F3
:1019A0006C817D81C6010E943606C8010E94C9096A
:1019B0000E94E104882311F081E0A6CF0E948B11E0
:1019C000FBCFC8010E94C9090E94E104F5CFC801FC
:1019D0000E94C9090E94E104C8010E945C09882391
:1019E00059F380E00F900F900F900F900F90DF91C0
:1019F000CF911F910F91FF90EF90DF90CF900895BE
:101A0000EF92FF920F931F93CF93DF93FC01028D10
:101A10000023E9F07A01EC01158D0E94AF09015015
:101A20000A8F1F3F81F48885882379F0CE010896BC
:101A30000E945F06882349F0E114F10431F081E04F
:101A4000F701808305C01F5F1D8F81E001C080E02A
:101A5000DF91CF911F910F91FF90EF9008950F9319
:101A60001F93CF93DF93FC01228D222349F0EC01D9
:101A7000068117810E94AF091F830E8381E001C098
:101A800080E0DF91CF911F910F9108950FB6F894E8
:101A90000F92FC01828D0F900FBE08950FB6F8943F
:101AA0000F92FC01228D0F900FBE838D821B089533
:101AB000FC01828D08950C94CF10FC01928D81E081
:101AC000911180E00895FC01928D81E0238D29130E
:101AD00080E00895CF93DF93EC01F8940FB6F8946B
:101AE0000F928A8D9B8D0F900FBE89130FC04115E9
:101AF000510549F0BE01685F7F4FCA010E94490F3E
:101B000078948CEF1BC0789480E018C07894F89497
:101B10008A8D891788F440E0CE010E94670989897F
:101B2000811102C081E009C0CE0141960E94781067
:101B30008823C1F38BEF01C080E07894DF91CF91CF
:101B40000895CF93DF93EC01FB01F8948A8D811106
:101B50000FC04115510549F0BE016F5E7F4FCA01AC
:101B60000E94490F78948CEF30C0789480E02DC0AB
:101B70007894F8948A8D882331F14C8D50E02E8131
:101B80003F81240F351F3F832E838C819D81281731
:101B9000390720F0888199819F838E839A8D915097
:101BA0009A8F6E817F81CF010E94A4128885811156
:101BB00002C081E009C0CE0108960E9478108823F7
:101BC000C1F38BEF01C080E07894DF91CF9108954D
:101BD0000F931F93CF938C01C42FFC01928D838DA3
:101BE000981710F04C2F12C040E0C8010E946709FE
:101BF000C111F8CFF8018189882339F0C8014196D5
:101C00000E94781041E0811101C040E0842FCF9103
:101C10001F910F9108950F931F93CF93DF93FC01B2
:101C2000828D882379F1248D30E0A681B781A20FBF
:101C3000B31FB783A68384819581A817B90720F0C5
:101C400080819181978386838A01CB01EF01428D48
:101C50004150428F66817781A9010E94A412F80148
:101C60008081882311F081E00EC088858823D9F314
:101C7000CE0108960E9478108823A9F381E0F8012C
:101C8000808301C080E0DF91CF911F910F91089573
:101C9000FC010396928381832FEF3FEF34832383EC
:101CA000968385839087878310820895FC0111862F
:101CB00010860895CF93DF939C01FB01DC01119600
:101CC000CD91DC911297D383C2838C819D819583C2
:101CD00084838C819D81DC0113967C936E93129793
:101CE0007D836C8331872087F90180818F5F8083BA
:101CF000DF91CF9108950F931F93CF93DF938C01C2
:101D0000FB01808191818F3F2FEF920721F4E80141
:101D1000AF81B8850EC0D801139612962D913C91D3
:101D20001397E901488159818417950710F0D9016B
:101D3000F4CF12968D919C91139793838283EC013B
:101D4000FD83EC83B583A4831396FC93EE931297E3
:101D500011870087F80180818F5F8083DF91CF91A9
:101D60001F910F910895CF93DF93FC01A085B1855A
:101D70008281938124813581EC013D832C83C48150
:101D8000D5819B838A8311968D919C911297E81738
:101D9000F90721F41296DC93CE93119711861086E1
:101DA0008C9181508C938C91DF91CF910895CF923B
:101DB000DF92EF92FF921F93CF93DF936C01162F68
:101DC000F42E8AE190E00E949D10EC01892B09F429
:101DD00057C08091AA019091AB01892B21F5D09336
:101DE000AB01C093AA0182ED91E00E94480E8BEDF9
:101DF00091E00E94480E89EC91E00E94480E80EC30
:101E000091E00E94480E83EB91E00E94480E89EC1D
:101E100091E09093BF018093BE0180EC91E090939C
:101E2000BD018093BC01111111E0198E188E1E8B1B
:101E3000FF8AFE01C192D1927F01CF010E94560E0E
:101E4000CE010C960E94560ED987C887DB8BCA8BB1
:101E500082E090E0811B91099D878C878E8990910B
:101E6000B201981710F48093B201F9E08F9FC0017E
:101E70001124B7018E529E4F0E945A0E81E001C07C
:101E80008FEFDF91CF911F91FF90EF90DF90CF9078
:101E900008950F931F93CF93DF938B01C091B001EF
:101EA000D091B101C80FD91F8091AA019091AB01C7
:101EB00002960E94B30EE091AA01F091AB01D38388
:101EC000C2838091B0019091B101BF016E5F7F4FDD
:101ED000C817D90728F48091BC019091BD0104C0B6
:101EE0008091BE019091BF010E947B0E01151105EA
:101EF00069F06091AA017091AB01645F7F4FC801E6
:101F0000DF91CF911F910F910C947B0EDF91CF91B8
:101F10001F910F910895FF920F931F93CF93DF931B
:101F200099E0F92E8091B301882311F1F894E091A2
:101F3000B801F091B901C681D781CE010C960E94FB
:101F4000B30E78948E010E5F1F4FC8010E94B30E2E
:101F50008E899091B201981710F48093B201F89E87
:101F6000C0011124B8018E529E4F0E945A0EDACF42
:101F70000E941B042091AE013091AF01821B930B94
:101F80009093AD018093AC0189E0F82E2091AC01D3
:101F90003091AD018091B0019091B10121153105D1
:101FA00009F454C001969093B1018093B00121507F
:101FB00031093093AD012093AC01892B09F03EC06B
:101FC0008091BE019091BF012091BC013091BD0173
:101FD0003093BF012093BE019093BD018093BC015B
:101FE0002DC00580F681E02DC681D7812A813B81F5
:101FF0008091B0019091B1018217930738F2F89463
:102000008E010E5F1F4FC8010E94B30E8C899D89FF
:10201000892B21F0CE010C960E94B30E78948E8904
:102020009091B201981710F48093B201F89EC0010C
:102030001124B8018E529E4F0E945A0EE091BE01AB
:10204000F091BF0180818111CCCFA0CF9093AF01DF
:102050008093AE018091B20169E0482F50E0649F07
:102060009001659F300D1124F901EE52FE4F9081D1
:1020700091110CC0811108C01092B201DF91CF9173
:102080001F910F91FF9008958150E7CF8093B20187
:10209000A181B28112960D90BC91A02DB283A18333
:1020A0002B523E4FA217B30731F412968D919C919B
:1020B00013979283818389E0849FF001859FF00DBF
:1020C0001124EE52FE4F0180F281E02D868197812E
:1020D0009093AB018093AA01DC01ED91FC911197E3
:1020E00057966C91DF91CF911F910F91FF900994BA
:1020F0000F931F93CF93DF93DC011596ED91FC9125
:102100001697C681D7818E01045F1F4FC8010E94B8
:10211000B30EB80183EB91E00E945A0EE091AA0140
:10212000F091AB0181E02E899689291708F480E0AF
:10213000DF91CF911F910F910895CF93DF93EC0121
:102140000E9415048091E4019091E501892B31F4FE
:1021500089EE91E09093E5018093E4012091E601FE
:102160003091E701C9018C0F9D1F8B3D45E094071D
:1021700070F42817390758F4C091E401D091E501B3
:10218000C20FD31F9093E7018093E60102C0C0E025
:10219000D0E00E94E104CE01DF91CF91089508952F
:1021A0001092E7011092E60108952091E601309126
:1021B000E7018BED95E0821B930B089531E1FC0163
:1021C0003083319722E220833197A3E3A0833197B4
:1021D00060833197708331971082319760E8608314
:1021E00031971082319762E06083319763E06083BA
:1021F000319764E06083319765E06083319766E0F2
:102200006083319767E06083319768E0608331973E
:1022100069E06083319760E1608331973083319763
:1022200032E13083319733E13083319734E13083C9
:10223000319735E13083319736E13083319737E19B
:102240003083319738E13083319739E130833197EA
:1022500030E23083319731E23083319720833197F8
:1022600023E220833197408331975083319726E2D0
:102270002083319727E22083319728E2208331970A
:1022800029E22083319720E32083319721E32083C3
:102290008697089589EF90E0909389008093880055
:1022A000E0E8F0E080818C7F80838BE08093810088
:1022B000EFE6F0E0808182608083A0914401B091DC
:1022C0004501CD91CDBFDD91DEBFFF91EF91DF9153
:1022D000CF91BF91AF919F918F917F916F915F91BE
:1022E0004F913F912F911F910F91FF90EF90DF90B1
:1022F000CF90BF90AF909F908F907F906F905F90A6
:102300004F903F902F901F900F900FBE0F90089509
:1023100081E0089508950F920FB6F8940F921F92DE
:1023200011242F923F924F925F926F927F928F92E1
:102330009F92AF92BF92CF92DF92EF92FF920F9354
:102340001F932F933F934F935F936F937F938F933D
:102350009F93AF93BF93CF93DF93EF93FF93A0919E
:102360004401B09145010DB60D920EB60D920E943A
:102370009D05A0914401B0914501CD91CDBFDD9166
:10238000DEBFFF91EF91DF91CF91BF91AF919F9110
:102390008F917F916F915F914F913F912F911F91FD
:1023A0000F91FF90EF90DF90CF90BF90AF909F90F4
:1023B0008F907F906F905F904F903F902F901F90E5
:1023C0000F900FBE0F9008950F920FB6F8940F92D2
:1023D0001F9211242F923F924F925F926F927F92A1
:1023E0008F929F92AF92BF92CF92DF92EF92FF9225
:1023F0000F931F932F933F934F935F936F937F930D
:102400008F939F93AF93BF93CF93DF93EF93FF93FC
:10241000A0914401B09145010DB60D920EB60D92FA
:102420000E94350481110E949D05A0914401B09144
:102430004501CD91CDBFDD91DEBFFF91EF91DF91E1
:10244000CF91BF91AF919F918F917F916F915F914C
:102450004F913F912F911F910F91FF90EF90DF903F
:10246000CF90BF90AF909F908F907F906F905F9034
:102470004F903F902F901F900F900FBE0F90089598
:102480000E94E4111895EF92FF920F93CF93DF9380
:1024900000D000D000D0CDB7DEB70E940D01EAEC2D
:1024A000F7E080E091E09583848393838283918336
:1024B00080830E941E01789443E060E081E00E94E6
:1024C000460A9093C5078093C40720E040E050E09F
:1024D00060E070E00E946E0ACE0105967C0101E08A
:1024E00020E030E040E951E06FE271E086EE90E0FC
:1024F0000E940102CE0103967C012EE030E040E90B
:1025000051E064E371E08FEB90E00E940102CE01A4
:1025100001967C0121E030E040E951E069E371E09F
:1025200088E990E00E9401020E94E60380E090E0CA
:1025300026960FB6F894DEBF0FBECDBFDF91CF91C8
:102540000F91FF90EF900895FB01DC0102C0019014
:102550000D9241505040D8F708954532510520F46E
:10256000423010F00C94B812FB011082CB01089598
:10257000BB274A3031F4992322F4BDE2909581952E
:102580009F4F0C94C412BB27FB015527AA27880F25
:10259000991FAA1FA41710F0A41B83955051B9F7D7
:1025A000A05DAA3308F0A95DA193009779F7B11156
:1025B000B1931192CB010C94EA14A0E0B0E0E3EEE9
:1025C000F2E10C94A415AE014B5F5F4FFA016191EB
:1025D0007191AF018091CC079091CD070E94F312C9
:1025E000E2E00C94C015ABE0B0E0E9EFF2E10C944E
:1025F00094156C017B018A01FC011782168283818C
:1026000081FFCCC1CE0101963C01F6019381F70117
:1026100093FD859193FF81917F01882309F4BAC1CD
:10262000853239F493FD859193FF81917F01853245
:1026300029F4B60190E00E94FA14E7CF912C212CE6
:10264000312CFFE1F315D8F08B3279F038F4803279
:1026500079F08332A1F4232D20611DC08D3261F009
:10266000803369F4232D216016C0832D8260382EBB
:10267000E32DE4603E2E2AC0F32DF8601DC037FC28
:102680002DC020ED280F2A3040F08E32B9F436FCF0
:1026900081C1232D2064322E19C036FE06C08AE087
:1026A000989E200D1124922E11C0EAE02E9E200D3E
:1026B0001124222EF32DF0623F2E08C08C3621F417
:1026C000832D8068382E02C0883641F4F70193FDCF
:1026D000859193FF81917F018111B3CF982F9F7DC9
:1026E0009554933028F40C5F1F4F9FE399830DC0DE
:1026F000833631F0833771F0833509F059C021C03A
:10270000F801808189830E5F1F4F88248394912C68
:10271000530113C02801F2E04F0E511CF801A080B4
:10272000B18036FE03C0692D70E002C06FEF7FEF0D
:10273000C5010E94DF144C018201F32DFF773F2E6B
:1027400016C0280122E0420E511CF801A080B18081
:1027500036FE03C0692D70E002C06FEF7FEFC50148
:102760000E94D4144C01F32DF0683F2E820133FCFB
:102770001BC0822D90E088169906B0F4B60180E265
:1027800090E00E94FA142A94F4CFF50137FC859169
:1027900037FE81915F01B60190E00E94FA1421108A
:1027A0002A9421E0821A91088114910471F7E8C0FB
:1027B000843611F0893641F5F80137FE07C0608193
:1027C0007181828193810C5F1F4F08C0608171818C
:1027D000072E000C880B990B0E5F1F4FF32DFF7611
:1027E0003F2E97FF09C090958095709561957F4F1A
:1027F0008F4F9F4FF0683F2E2AE030E0A3010E94E8
:102800003615882E861845C0853731F4232D2F7E46
:10281000B22E2AE030E025C0932D997FB92E8F3655
:10282000C1F018F4883579F0B5C0803719F08837D1
:1028300021F0B0C0E92FE061BE2EB4FE0DC0FB2D2B
:10284000F460BF2E09C034FE0AC0292F2660B22EC4
:1028500006C028E030E005C020E130E002C020E101
:1028600032E0F801B7FE07C06081718182819381F7
:102870000C5F1F4F06C06081718180E090E00E5FA9
:102880001F4FA3010E943615882E8618FB2DFF7757
:102890003F2E36FE0DC0232D2E7FA22E891458F414
:1028A00034FE0BC032FC09C0832D8E7EA82E05C0DD
:1028B000B82CA32C03C0B82C01C0B92CA4FE0FC0A7
:1028C000FE01E80DF11D8081803321F49A2D997E5F
:1028D000A92E09C0A2FE06C0B394B39404C08A2DE9
:1028E000867809F0B394A3FC11C0A0FE06C0B21410
:1028F00088F4280C922C9B180EC0B21460F4B60118
:1029000080E290E00E94FA14B394F7CFB21418F466
:102910002B1802C0982C212CA4FE10C0B60180E315
:1029200090E00E94FA14A2FE17C0A1FC03C088E741
:1029300090E002C088E590E0B6010CC08A2D867850
:1029400059F0A1FE02C08BE201C080E2A7FC8DE23B
:10295000B60190E00E94FA14891438F4B60180E3BD
:1029600090E00E94FA149A94F7CF8A94F301E80D4C
:10297000F11D8081B60190E00E94FA148110F5CF1C
:10298000222009F442CEB60180E290E00E94FA14BF
:102990002A94F6CFF6018681978102C08FEF9FEFD0
:1029A0002B96E2E10C94B015FC010590615070404B
:1029B0000110D8F7809590958E0F9F1F0895FC0108
:1029C0006150704001900110D8F7809590958E0F5E
:1029D0009F1F0895DC01FC01672F71917723E1F7B8
:1029E000329704C07C916D9370836291AE17BF07DC
:1029F000C8F308950F931F93CF93DF93FB012381B7
:102A000021FD03C08FEF9FEF2CC022FF16C046812F
:102A10005781248135814217530744F4A081B18145
:102A20009D012F5F3F4F318320838C932681378117
:102A30002F5F3F4F3783268314C08B01EC01FB01CE
:102A40000084F185E02D0995892BE1F6D8011696D1
:102A50008D919C911797019617969C938E9316973C
:102A6000CE01DF91CF911F910F910895FA01AA270E
:102A7000283051F1203181F1E8946F936E7F6E5FC1
:102A80007F4F8F4F9F4FAF4FB1E03ED0B4E03CD06F
:102A9000670F781F891F9A1FA11D680F791F8A1F52
:102AA000911DA11D6A0F711D811D911DA11D20D0B9
:102AB00009F468943F912AE0269F11243019305D73
:102AC0003193DEF6CF010895462F4770405D419364
:102AD000B3E00FD0C9F7F6CF462F4F70405D4A33B1
:102AE00018F0495D31FD4052419302D0A9F7EACF79
:102AF000B4E0A6959795879577956795BA95C9F7A8
:102B000000976105710508959B01AC010A2E06949A
:102B10005795479537952795BA95C9F7620F731F53
:102B2000841F951FA01D08952F923F924F925F9290
:102B30006F927F928F929F92AF92BF92CF92DF92CD
:102B4000EF92FF920F931F93CF93DF93CDB7DEB732
:102B5000CA1BDB0B0FB6F894DEBF0FBECDBF0994C6
:102B60002A88398848885F846E847D848C849B841D
:102B7000AA84B984C884DF80EE80FD800C811B812B
:102B8000AA81B981CE0FD11D0FB6F894DEBF0FBE5A
:0A2B9000CDBFED010895F894FFCFCA
:102B9A0000000003000000005300620000004144EE
:102BAA0043333A0925730D0A00414443323A092551
:102BBA00730D0A00414443313A0925730D0A004155
:102BCA0044433100414443320041444333004944C1
:042BDA004C45000066
:00000001FF
