:100000000C94B5000C94D2000C94D2000C94D20045
:100010000C94D2000C94D2000C94D2000C94D20018
:100020000C94D2000C94D2000C94D2000C94311495
:100030000C94D2000C94D2000C947B010C94D2004E
:100040000C94D2000C94D2000C94D2000C94D200E8
:100050000C94D2000C9490010C94D2000C94D20019
:100060000C94D2000C94D2006E616E00696E660032
:1000700000407A10F35A00A0724E18090010A5D45F
:10008000E80000E87648170000E40B54020000CABC
:100090009A3B000000E1F505000080969800000002
:1000A00040420F000000A086010000001027000061
:1000B0000000E803000000006400000000000A00E7
:1000C000000000000100000000002C76D888DC67EA
:1000D0004F0823DFC1DFAE59E1B1B796E5E3E45342
:1000E000C63AE651997696E8E6C28426EB898C9B5F
:1000F00062ED407C6FFCEFBC9C9F40F2BAA56FA5FF
:10010000F490055A2AF75C936B6CF9676DC11BFC80
:10011000E0E40D47FEF520E6B500D0ED902E03009B
:10012000943577050080841E080000204E0A0000E8
:1001300000C80C333333330F986E12831141EF8DA7
:100140002114893BE65516CFFEE6DB18D1844B38E7
:100150001BF77C1D901DA4BBE424203284725E2218
:100160008100C9F124ECA1E53D2711241FBECFEF8A
:10017000D8E0DEBFCDBF11E0A0E0B1E0E4EAF9E3F2
:1001800002C005900D92A837B107D9F728E0A8E77B
:10019000B1E001C01D92A330B207E1F70E94B11790
:1001A0000C94D01C0C94000080E284B9089582E085
:1001B00084BD85E085BD8EE187BDEEE6F0E08081FF
:1001C00082608083089582E48093B00081E0809310
:1001D000B1008EE18093B300239A089580EC809360
:1001E0007C0081E080937E00EAE7F0E087E0808396
:1001F0008081886880830895CF93DF93CDB7DEB781
:1002000062970FB6F894DEBF0FBECDBF0E94E30029
:100210000E94D7000E94EE009E012F5F3F4F40E0FA
:1002200050E060E070E080E890E00E946A0278941C
:100230000091B30010E055245A9493E2692E712C7A
:100240002CE2822E9924939430E1A32E31E0B32E38
:10025000809178018823E1F32091FB073091FC071E
:1002600040910001509101013695279536952795CB
:10027000549EC001559E900D1124B3010E94EF17AA
:10028000CB01AE014F5F5F4FB9010E9497027C0125
:10029000C601B4010E94EF17892B81F41F930F93BD
:1002A000FF92EF92BF92AF920E945C1C0F900F9052
:1002B0000F900F900F900F90C12CD12C8FEFC81A78
:1002C000D80A8091B300082F10E09701200F311F4A
:1002D000121613061CF01092B3000AC02F3F31050E
:1002E00021F01CF05092B30003C0E80EE092B3007E
:1002F00010927801ADCF1F920F920FB60F9211247A
:100300008F93EF93FF93EAE7F0E08081806480832E
:10031000FF91EF918F910F900FBE0F901F90189546
:100320001F920F920FB60F9211248F939F9380917B
:100330007800909179009093FC078093FB0781E00F
:10034000809378019F918F910F900FBE0F901F9017
:100350001895EF92FF920F931F93CF938C017C011E
:10036000C0E08091FD079091FE070E94E21BF7011B
:1003700081937F01CF5F8D3011F0C43191F7F80187
:10038000EC0FF11D10828C2FCF911F910F91FF90D8
:10039000EF900895CF93DF93CDB7DEB764970FB694
:1003A000F894DEBF0FBECDBF08E511E08CE3E82E68
:1003B00081E0F82ECE0101960E94A90165E371E06B
:1003C000CE0101960E948C1B6C0144E050E067E373
:1003D00071E00E949A1B892B79F56091FB0770915F
:1003E000FC0780E090E00E9490192DEC3CEC4CE87A
:1003F0005FE30E941E1A20E030E040E85AE30E94CA
:100400001E1A2DEC3CEC4CEC5EE30E94B11827E781
:100410003EEB4FE95CE30E941E199F938F937F93FD
:100420006F93FF92EF920E945C1C0F900F900F90C1
:100430000F900F900F90BECF46E050E061E571E065
:10044000C6010E949A1B892B09F0B4CF65E371E0C5
:1004500080E090E00E948C1B0E948B1A9093010117
:10046000809300019F938F931F930F930E945C1CB6
:100470000F900F900F900F909DCFFC018681978178
:1004800022853385280F391F80859185820F931F20
:100490000895089587E690E09093C5008093C40086
:1004A0001092C00088E18093C10086E08093C20072
:1004B00008959091C00095FFFCCF8093C60080E026
:1004C00090E008958091C00087FFFCCF8091C60026
:1004D00090E00895CF93DF93FB01E9011A821B821C
:1004E0001C821D82198218829F838E837987688778
:1004F0005B874A87BC016F5F7F4F8FEF9FE70E944A
:1005000003187D876C879F012F5F3F4F032E000CE0
:10051000440B550B6FEF7FEF8FEF9FE30E9417188F
:100520002E873F87488B598BDF91CF910895EF92AB
:10053000FF920F931F93CF93DF938B01FA019C01DE
:10054000261B370B848595858217930784F0919538
:1005500081959109281739076CF086819781289F2A
:10056000E001299FD00D389FD00D112405C0CFEF99
:10057000DFE702C0C1E0D0E8C901330FAA0BBB0B13
:1005800042815381648175819A01AB01280F391F23
:100590004A1F5B1F86859785A089B18982179307BB
:1005A000A407B5074CF482839383A483B5836FEFCC
:1005B0007FEF8FEF9FE31DC0B095A095909581953B
:1005C0009F4FAF4FBF4F281739074A075B074CF4BF
:1005D00082839383A483B58361E070E080E090EC34
:1005E00008C02283338344835583A085B1850E944C
:1005F000361820813181201B310BA285B3852A9FBB
:1006000070012B9FF00C3A9FF00C11241183008392
:100610008E01DD0F220B330BAB01BC01400F511FCC
:10062000621F731FC701FF0CAA0BBB0B8A019B0142
:10063000080F191F2A1F3B1FC901B80120E830E02D
:1006400040E050E00E941718213010E831071FEFFA
:100650004107510724F421E030E84FEF5FEFDA0162
:10066000C901811520E89207A105B10524F08FEF9B
:100670009FE7A0E0B0E0DF91CF911F910F91FF9035
:10068000EF900895FC01128213821482158208955E
:10069000E091A701F091A8018081811103C08FEF43
:1006A0009FEF0CC0E091A701F091A8010580F681B1
:1006B000E02D0680F781E02D8281938190937F0168
:1006C00080937E010895FF920F931F93CF93DF9342
:1006D000EC01F62E0091860110918701809179013D
:1006E00090917A0102960E94A410CF3F8FEFD80715
:1006F00089F4FF2079F06091790170917A016E5F41
:100700007F4F89E891E0DF91CF911F910F91FF908A
:100710000C944B10C00FD11FE0917901F0917A0138
:10072000D383C2836091790170917A01C017D10798
:1007300068F48091A5019091A6016E5F7F4FDF91D3
:10074000CF911F910F91FF900C946C108091A70195
:100750009091A8016E5F7F4F0E946C1080917E0186
:1007600090917F01C817D90720F4D0937F01C093DF
:100770007E01DF91CF911F910F91FF90089580919D
:100780009201882309F10FB6F8940F92E091980135
:10079000F0919901C681D781CE0102960E94A410E2
:1007A00080918801815080938801809192018150CD
:1007B000809392010F900FBE8F89988D0E94C01276
:1007C000CE010E94C012DBCF8091BB01823010F0BD
:1007D0000E947C130E944902D2CF3F924F925F92B7
:1007E0006F927F928F929F92AF92BF92CF92DF9241
:1007F000EF92FF920F931F93CF93DF934C01162F2D
:10080000372E6A015901CA010E948E122C01892BD0
:1008100009F4D1C086E290E00E948E12EC01892B8F
:1008200079F0588E4F8AC60101973201680E791E01
:10083000BE01675E7F4FE12FF32DCF01089607C001
:10084000C2010E94C012B7C0E817F90749F09F0122
:100850004191DB014D93BD01D9012C912111F4CFC0
:1008600018A2043008F003E00E8B6E01B2E0CB0E4C
:10087000D11CC6010E944710CE010C960E94471061
:10088000D987C88784E090E0801B91099D878C8779
:10089000DB8BCA8B19A21AA21BA21CA21DA2A50146
:1008A000B401C3010E94CF1299838883E114F1043B
:1008B00019F0F701D183C0830FB6F8940F9280919D
:1008C00088018F5F809388018091790190917A01EE
:1008D000892BD1F5D0937A01C09379018091880159
:1008E000813009F041C08BEB91E00E94391084EC1B
:1008F00091E00E9439108DEC91E00E94391086ED54
:1009000091E00E94391082EB91E00E94391089EA4F
:1009100091E00E9439108CE991E00E94391083E93E
:1009200091E00E94391089E891E00E94391082EB31
:1009300091E09093A8018093A70189EA91E09093B8
:10094000A6018093A50110C08091840181110CC083
:10095000E0917901F0917A0196898E89891720F0CA
:10096000D0937A01C0937901809180018F5F809349
:1009700080018E8990918501981710F480938501EC
:10098000F9E08F9FC0011124B60185549E4F0E944B
:100990004B100F900FBE80918401882351F0E0919D
:1009A0007901F0917A0196898E89981710F40E9446
:1009B0007C1381E001C08FEFDF91CF911F910F91E8
:1009C000FF90EF90DF90CF90BF90AF909F908F906F
:1009D0007F906F905F904F903F9008950F931F937B
:1009E000CF93DF93EC010FB6F8940F92892B21F48B
:1009F000C0917901D0917A018E010E5F1F4FC8011D
:100A00000E94A4108C899D89892B21F0CE010C961F
:100A10000E94A410809180018F5F8093800180915B
:100A2000790190917A01C817D90759F4B80183E97F
:100A300091E00E944B10809192018F5F8093920110
:100A40000EC0809188018150809388018F89988D94
:100A50000E94C012CE010E94C0120E9448030F9053
:100A60000FBE80918401882349F080917901909193
:100A70007A01C817D90711F40E947C13DF91CF9136
:100A80001F910F9108950F931F93CF93DF932091A0
:100A9000790130917A0182179307B9F10097A9F192
:100AA0000FB6F8940F92FC01228533852958314006
:100AB00051F5FC0124893589F1E02C393F0719F102
:100AC000232B09F5EC018C010E5F1F4FC8010E941A
:100AD000A4108E8990918501981710F48093850158
:100AE00029E0829FC0011124B80185549E4F0E94C5
:100AF0004B10E0917901F0917A019E8986899817CF
:100B000010F00E947C130F900FBEDF91CF911F91C8
:100B10000F910895EF92FF921F93CF93DF93EC0113
:100B20008A859B858958914099F48C899D8921E01B
:100B30008C39920769F0892B59F480917B018823C5
:100B400049F0BE01645F7F4F8CE991E00E944B1039
:100B500010E021C0E0917901F0917A0111E09E89C5
:100B60008689981708F410E07E0182E0E80EF11CF7
:100B7000C7010E94A4108E8990918501981710F4E6
:100B80008093850129E0829FC0011124B70185541B
:100B90009E4F0E944B10812FDF91CF911F91FF90AC
:100BA000EF900895EF92FF920F938CE7E82E81E08B
:100BB000F82E00E020E030E045E550E063E771E02A
:100BC0008FEB93E00E94ED03813091F4F8942FEFC6
:100BD0003FEF30937F0120937E0180938401109238
:100BE0008701109286010F91FF90EF900C943B13B8
:100BF0000F91FF90EF900895F894109284010C9457
:100C00007B1380917B018F5F80937B0108950FB6EA
:100C1000F8940F9280918601909187010F900FBEFA
:100C200008958091860190918701089580918801AF
:100C30000895009721F48091790190917A01499665
:100C40000895CF92DF92EF92FF920F931F93CF936D
:100C5000DF9380917B0181118CC0009186011091FE
:100C600087010F5F1F4F10938701009386010115C5
:100C70001105B9F48091A7019091A8012091A501D7
:100C80003091A6013093A8012093A7019093A6016B
:100C90008093A501809181018F5F809381010E94E3
:100CA000480380917E0190917F01C0E008171907E9
:100CB00008F44FC0D9E0E091A701F091A80180812C
:100CC000811103C08FEF9FEF11C0E091A701F09158
:100CD000A8010580F681E02DE680F780D701129605
:100CE0008D919C9113970817190728F490937F0111
:100CF00080937E012EC06701B2E0CB0ED11CC601ED
:100D00000E94A410F70184899589892B21F0C701DD
:100D10000C960E94A410D70156968C919091850153
:100D2000981710F480938501D89FC0011124B60153
:100D300085549E4F0E944B10E0917901F0917A0109
:100D4000D70156969C918689981708F4B4CFC1E0D4
:100D5000B2CFE0917901F0917A01E689B9E0EB9F99
:100D6000F0011124E554FE4F8081823040F0C1E053
:100D700006C0809183018F5F80938301C0E08091E2
:100D800082018111C1E08C2FDF91CF911F910F91D2
:100D9000FF90EF90DF90CF900895EF92FF920F9326
:100DA0001F93CF93DF930FB6F8940F9280917B013E
:100DB000815080937B0180917B01882311F080E03A
:100DC00052C0809188018823D1F3C0E0D0E089E04F
:100DD000F82EEE24E39480919C01882351F1E09158
:100DE000A101F091A201C681D781CE010C960E948B
:100DF000A4108E010E5F1F4FC8010E94A4108E899F
:100E000090918501981710F480938501F89EC00198
:100E10001124B80185549E4F0E944B10E091790136
:100E2000F0917A019E8986899817A8F2E092820152
:100E3000D2CFCD2B11F00E944803C0918301CC2367
:100E400051F0D1E00E9421068111D0938201C1505E
:100E5000C9F71092830180918201882309F4AFCFF2
:100E60000E947C1381E00F900FBEDF91CF911F9104
:100E70000F91FF90EF9008950F931F93CF93DF93FF
:100E80008C01EB010E94010640918601509187017F
:100E9000F80120813181C9018C0F9D1F4217530732
:100EA00020F48217930740F403C08217930730F0B1
:100EB00021E04817590718F020E001C021E0F801AF
:100EC00091838083222329F060E0841B950B0E948C
:100ED00063030E94CD06811102C00E947C13DF9142
:100EE000CF911F910F910895CF93DF93EC01892B40
:100EF00019F40E947C130AC00E94010660E0CE0132
:100F00000E9463030E94CD06882399F3DF91CF915D
:100F1000089580917B01882321F081E080938201F4
:100F20000895109282018091850169E0482F50E078
:100F3000649F9001659F300D1124F901E554FE4F27
:100F40009081911102C08150F1CFA181B28112969E
:100F50000D90BC91A02DB283A18322543E4FA217C5
:100F6000B30731F412962D913C911397328321836C
:100F700099E0949FF001959FF00D1124E554FE4FE8
:100F80000180F281E02D2681378130937A01209310
:100F900079018093850108950F931F93CF93DF9379
:100FA000EC010FB6F8940F92892B21F4C0917901CE
:100FB000D0917A018E010E5F1F4FC8010E94A410CC
:100FC0008C899D89892B21F0CE010C960E94A4105A
:100FD000B80189E891E00E944B108DA1813009F49D
:100FE0001DA20F900FBE80918401882339F00FB6A7
:100FF000F8940F920E9448030F900FBE80917901E0
:1010000090917A01C817D907C1F48091840188238F
:1010100019F00E947C1311C0909189018091880180
:10102000981305C010927A011092790106C0DF91E1
:10103000CF911F910F910C948907DF91CF911F9150
:101040000F910895CF93DF93EB0160917901709137
:101050007A01645F7F4F0E946C1061E0CE01DF91E6
:10106000CF910C946303CF93DF93EA01E091790170
:10107000F0917A0170687587648760917901709149
:101080007A01645F7F4F0E944B1061E0CE01DF91D7
:10109000CF910C9463030F931F93CF93DF93DC01E5
:1010A0001596ED91FC911697C681D7818E01045F4C
:1010B0001F4FC8010E94A41080917B01811114C0B0
:1010C0000A501109C8010E94A4108E8990918501CF
:1010D000981710F480938501B9E08B9FC00111240B
:1010E000B80185549E4F03C0B8018CE991E00E947D
:1010F0004B10E0917901F0917A019E8986898917D8
:1011000020F481E08093820101C080E0DF91CF91E3
:101110001F910F9108950F931F93CF93DF937068E2
:10112000FC0171836083C681D7810E94A4108E0167
:101130000E5F1F4FC8010E94A4108E8990918501F7
:10114000981710F480938501F9E08F9FC001112456
:10115000B80185549E4F0E944B10E0917901F091A7
:101160007A019E898689891718F481E0809382012B
:10117000DF91CF911F910F9108950FB6F8940F92C0
:1011800020918101FC01208320918601309187010B
:10119000328321830F900FBE089520918101FC01BD
:1011A0002083209186013091870132832183089525
:1011B000CF93DF930FB6F8940F9240918601509130
:1011C0008701DB012D913C912F3FBFEF3B07D9F009
:1011D000EC01E981FA81A0918101B881BA1719F077
:1011E0004E175F0790F44E1B5F0BFB01421753072E
:1011F00038F4241B350B318320830E94CD0803C0B3
:101200001182108202C080E001C081E00F900FBE09
:10121000DF91CF91089581E08093820108958091BC
:10122000790190917A010895E0917901F0917A0124
:1012300084859585E0917901F0917A01A0917901F9
:10124000B0917A0156964C9124E030E0241B31098C
:101250003587248708950F931F93182FCB010FB65E
:10126000F8940F92E0917901F0917A0141A152A195
:1012700063A174A1452B462B472B69F4E0917901BA
:10128000F0917A0121E025A3009729F061E00E9406
:1012900063030E947C130F900FBE0FB6F8940F9259
:1012A000E0917901F0917A0161A172A183A194A1E9
:1012B0006115710581059105A9F0E0917901F09121
:1012C0007A01112329F011A212A213A214A20AC0BA
:1012D0008B019C01015011092109310901A312A3BD
:1012E00023A334A3E0917901F0917A0115A20F9024
:1012F0000FBE1F910F9108954F925F926F927F9250
:101300008F929F92AF92BF92EF92FF920F931F9393
:1013100049015A010FB6F8940F92E0917901F091CA
:101320007A0125A1223039F1E0917901F0917A0119
:1013300021A132A143A154A12B013C01409450941E
:1013400060947094D301C20182239323A423B52314
:1013500081A392A3A3A3B4A3E0917901F0917A01B0
:1013600081E085A3E114F10431F061E0C7010E943E
:1013700063030E947C130F900FBE0FB6F8940F9278
:101380000115110569F0E0917901F0917A0181A1CF
:1013900092A1A3A1B4A1F80180839183A283B38316
:1013A000E0917901F0917A0185A18230C1F4E09158
:1013B0007901F0917A0141A152A163A174A1D501F3
:1013C000C40180959095A095B09584239523A6237C
:1013D000B72381A392A3A3A3B4A381E001C080E0BB
:1013E000E0917901F0917A0115A20F900FBE1F9143
:1013F0000F91FF90EF90BF90AF909F908F907F9054
:101400006F905F904F9008950F931F93CF93DF934A
:10141000FC010FB6F8940F920115110549F081A156
:1014200092A1A3A1B4A1E80188839983AA83BB8375
:1014300035A182E085A3223089F058F4213001F5EE
:1014400081A192A1A3A1B4A1482B592B6A2B7B2B7C
:1014500013C0233089F0243069F012C081A192A119
:10146000A3A1B4A10196A11DB11D81A392A3A3A321
:10147000B4A306C0323049F141A352A363A374A3BD
:10148000313009F5EF018F010E5F1F4FC8010E9437
:10149000A4108E8990918501981710F4809385018E
:1014A00029E0829FC0011124B80185549E4F0E94FB
:1014B0004B10E0917901F0917A019E898689891714
:1014C00010F40E947C1381E001C080E00F900FBEF9
:1014D000DF91CF911F910F910895EF92FF920F939B
:1014E0001F93CF93DF93FC010115110549F081A1F2
:1014F00092A1A3A1B4A1E80188839983AA83BB83A5
:1015000035A182E085A3223089F058F4213001F51D
:1015100081A192A1A3A1B4A1482B592B6A2B7B2BAB
:1015200013C0233089F0243069F012C081A192A148
:10153000A3A1B4A10196A11DB11D81A392A3A3A350
:10154000B4A306C03230D9F141A352A363A374A35C
:10155000313011F081E034C0EF0180917B018111C5
:1015600015C08F010E5F1F4FC8010E94A4108E8905
:1015700090918501981710F480938501E9E08E9F82
:10158000C0011124B80185549E4F05C0BF01645F9E
:101590007F4F8CE991E00E944B10E0917901F0912E
:1015A0007A019E8986898917A8F6E114F10419F059
:1015B00081E0E701888381E08093820101C080E0BF
:1015C000DF91CF911F910F91FF90EF900895EF92CF
:1015D000FF920F931F93CF93DF93FC0125A182E02D
:1015E00085A381A192A1A3A1B4A10196A11DB11DC2
:1015F00081A392A3A3A3B4A32130A1F58B01EF0192
:1016000080917B01811116C07F0122E0E20EF11C66
:10161000C7010E94A4108E8990918501981710F43B
:1016200080938501E9E08E9FC0011124B7018554A4
:101630009E4F05C0BF01645F7F4F8CE991E00E941F
:101640004B10E0917901F0917A019E898689891782
:1016500048F40115110519F081E0F801808381E05B
:1016600080938201DF91CF911F910F91FF90EF90B6
:101670000895009721F48091790190917A010FB635
:10168000F8940F92FC0125A1223019F415A281E0F3
:1016900001C080E00F900FBE08950FB6F8940F922E
:1016A000FC01928D0F900FBE81E0911180E00895B2
:1016B0000F931F93CF93DF93EC01042F1A8D4C8D62
:1016C0004423B1F150E0011115C08A819B810E9431
:1016D000911B2C8D8A819B81820F911D9B838A8314
:1016E0002C813D818217930718F1888199819B8312
:1016F0008A831EC08E819F810E94911B8C8D90E0F9
:101700009195819591092E813F81280F391F3F8343
:101710002E83488159812417350730F42C813D816F
:10172000820F931F9F838E83023011F41111115089
:101730001F5F1A8F80E0DF91CF911F910F91089565
:10174000FC01CB01448D4423A1F050E02681378178
:10175000240F351F37832683648175812617370749
:1017600020F02081318137832683668177810C9434
:10177000911B0895EF92FF921F93CF93DF93EC019B
:101780000FB6F8940F921E8D7C0181E1E80EF11CDA
:1017900011165CF48989882341F0C7010E944B0827
:1017A00081110E940B091150F3CF8FEF8E8F0F9094
:1017B0000FBE0FB6F8940F921D8D7E0188E0E80EE3
:1017C000F11C11165CF48885882341F0C7010E9442
:1017D0004B0881110E940B091150F3CF8FEF8D8FB1
:1017E0000F900FBEDF91CF911F91FF90EF90089562
:1017F000CF93DF93EC010FB6F8940F924881598193
:101800008B8D7C8D9A01879F200D311D11243D8386
:101810002C831A8E5B834A8390E00197789F900116
:10182000799F300D1124CA01820F931F9F838E83ED
:101830008FEF8D8F8E8F61110CC08885882389F082
:10184000CE0108960E944B08882359F00E947C1311
:1018500008C0CE0108960E943910CE0141960E9420
:1018600039100F900FBE81E0DF91CF9108950F9353
:101870001F93CF93DF93082F162F662321F0869FA7
:10188000C001112402C080E090E04F960E948E12A9
:10189000EC01009771F0111103C09983888303C094
:1018A0004F96998388830B8F1C8F61E0CE010E9435
:1018B000F80BCE01DF91CF911F910F910895AF9258
:1018C000BF92CF92DF92FF920F931F93CF93DF933C
:1018D00000D000D01F92CDB7DEB78C016B015D83C5
:1018E0004C83F22E80E0580198E0A90EB11C0FB68F
:1018F000F8940F92F801228D938D291718F0F2E0D9
:10190000FF1214C04F2DB601C8010E94580BF801F8
:101910009189992321F0C80141960E944B088111B9
:101920000E947C130F900FBE81E050C02C813D813E
:10193000232B19F40F900FBE48C0811104C0CE01B3
:1019400001960E94CD080F900FBE0E9401060FB6AF
:10195000F8940F92F801858D8F3F09F4158EF801E8
:10196000868D8F3F09F4168E0F900FBEBE016C5FFF
:101970007F4FCE0101960E94D808811121C00FB679
:10198000F8940F92F801928D0F900FBE838D9813EB
:1019900011C06C817D81C5010E942208C8010E948E
:1019A000BA0B0E94CD06882311F081E0A0CF0E94DF
:1019B0007C13FBCFC8010E94BA0B0E94CD06F5CF65
:1019C000C8010E94BA0B0E94CD0680E00F900F90D4
:1019D0000F900F900F90DF91CF911F910F91FF907B
:1019E000DF90CF90BF90AF900895EF92FF921F933A
:1019F000CF93DF93EC019A8D8B8D981710F02230E6
:101A0000E1F47A011E8D422FCE010E94580B1F3F38
:101A100081F48989882379F0CE0141960E944B0890
:101A2000882349F0E114F10431F081E0F70180836B
:101A300005C01F5F1E8F81E001C080E0DF91CF9164
:101A40001F91FF90EF900895CF93DF93FC01928D4B
:101A5000838D9817C0F4868D9F5F928F8F3F79F4A6
:101A60008189882371F0EB01CF0141960E944B08D8
:101A7000882339F0209729F081E0888305C08F5FA3
:101A8000868F81E001C080E0DF91CF910895AF9211
:101A9000BF92CF92DF92FF920F931F93CF93DF936A
:101AA00000D000D01F92CDB7DEB78C016B015D83F3
:101AB0004C8380E0580191E1A90EB11C0FB6F89457
:101AC0000F92F801F28CFF20A9F0B601C8010E9424
:101AD000A00BFA94F801F28E8085882339F0C801B2
:101AE00008960E944B0881110E947C130F900FBE34
:101AF00081E050C02C813D81232B19F40F900FBE43
:101B000048C0811104C0CE0101960E94CD080F90FB
:101B10000FBE0E9401060FB6F8940F92F801858D52
:101B20008F3F09F4158EF801868D8F3F09F4168ECC
:101B30000F900FBEBE016C5F7F4FCE0101960E94D9
:101B4000D80881111CC0C8010E944D0B882389F060
:101B50006C817D81C5010E942208C8010E94BA0BD8
:101B60000E94CD06882311F081E0A8CF0E947C134B
:101B7000FBCFC8010E94BA0B0E94CD06F5CFC80169
:101B80000E94BA0B0E94CD06C8010E944D0B88230B
:101B900059F380E00F900F900F900F900F90DF910E
:101BA000CF911F910F91FF90DF90CF90BF90AF909A
:101BB0000895EF92FF920F931F93CF93DF9300D07E
:101BC00000D01F92CDB7DEB78C017D836C8390E08F
:101BD000780181E1E80EF11C0FB6F8940F92F8013C
:101BE000828D882381F08150828F8085882339F00F
:101BF000C80108960E944B0881110E947C130F9027
:101C00000FBE81E050C02C813D81232B19F40F9031
:101C10000FBE48C0911104C0CE0101960E94CD08AC
:101C20000F900FBE0E9401060FB6F8940F92F801B4
:101C3000858D8F3F09F4158EF801868D8F3F09F44D
:101C4000168E0F900FBEBE016C5F7F4FCE010196C6
:101C50000E94D80881111CC0C8010E944D0B882326
:101C600089F06C817D81C7010E942208C8010E9411
:101C7000BA0B0E94CD06882311F091E0ADCF0E94EF
:101C80007C13FBCFC8010E94BA0B0E94CD06F5CF92
:101C9000C8010E94BA0B0E94CD06C8010E944D0BDC
:101CA000882359F380E00F900F900F900F900F90C2
:101CB000DF91CF911F910F91FF90EF900895CF92F8
:101CC000DF92EF92FF920F931F93CF93DF9300D099
:101CD00000D01F92CDB7DEB78C017B015D834C83B2
:101CE00080E0680191E1C90ED11C0FB6F8940F9203
:101CF000F801928D9923B9F0C680D780B701C80149
:101D00000E94A00BF801D782C6828189882339F00E
:101D1000C80141960E944B0881110E947C130F90CC
:101D20000FBE81E050C02C813D81232B19F40F9010
:101D30000FBE48C0811104C0CE0101960E94CD089B
:101D40000F900FBE0E9401060FB6F8940F92F80193
:101D5000858D8F3F09F4158EF801868D8F3F09F42C
:101D6000168E0F900FBEBE016C5F7F4FCE010196A5
:101D70000E94D80881111CC0C8010E944D0B882305
:101D800089F06C817D81C6010E942208C8010E94F1
:101D9000BA0B0E94CD06882311F081E0A6CF0E94E5
:101DA0007C13FBCFC8010E94BA0B0E94CD06F5CF71
:101DB000C8010E94BA0B0E94CD06C8010E944D0BBB
:101DC000882359F380E00F900F900F900F900F90A1
:101DD000DF91CF911F910F91FF90EF90DF90CF9007
:101DE0000895EF92FF920F931F93CF93DF93FC011F
:101DF000028D0023E9F07A01EC01158D0E94A00B01
:101E000001500A8F1F3F81F48885882379F0CE0125
:101E100008960E944B08882349F0E114F10431F040
:101E200081E0F701808305C01F5F1D8F81E001C045
:101E300080E0DF91CF911F910F91FF90EF90089577
:101E40000F931F93CF93DF93FC01228D222349F040
:101E5000EC01068117810E94A00B1F830E8381E095
:101E600001C080E0DF91CF911F910F9108950FB6CF
:101E7000F8940F92FC01828D0F900FBE08950FB65B
:101E8000F8940F92FC01228D0F900FBE838D821B60
:101E90000895FC01828D08950C94C012FC01928D6E
:101EA00081E0911180E00895FC01928D81E0238D05
:101EB000291380E00895CF93DF93EC01F8940FB6D7
:101EC000F8940F928A8D9B8D0F900FBE89130FC0CF
:101ED0004115510549F0BE01685F7F4FCA010E945C
:101EE0003A1178948CEF1BC0789480E018C07894F5
:101EF000F8948A8D891788F440E0CE010E94580B2F
:101F00008989811102C081E009C0CE0141960E94F9
:101F100069128823C1F38BEF01C080E07894DF91D0
:101F2000CF910895CF93DF93EC01FB01F8948A8D54
:101F300081110FC04115510549F0BE016F5E7F4F01
:101F4000CA010E943A1178948CEF30C0789480E0F6
:101F50002DC07894F8948A8D882331F14C8D50E00F
:101F60002E813F81240F351F3F832E838C819D81DD
:101F70002817390720F0888199819F838E839A8D55
:101F800091509A8F6E817F81CF010E94911B88852D
:101F9000811102C081E009C0CE0108960E94691239
:101FA0008823C1F38BEF01C080E07894DF91CF915B
:101FB00008950F931F93CF938C01C42FFC01928D32
:101FC000838D981710F04C2F12C040E0C8010E947A
:101FD000580BC111F8CFF8018189882339F0C80165
:101FE00041960E94691241E0811101C040E0842FB6
:101FF000CF911F910F9108950F931F93CF93DF936C
:10200000FC01828D882379F1248D30E0A681B7818F
:10201000A20FB31FB783A68384819581A817B90740
:1020200020F080819181978386838A01CB01EF0123
:10203000428D4150428F66817781A9010E94911B98
:10204000F8018081882311F081E00EC08885882303
:10205000D9F3CE0108960E9469128823A9F381E082
:10206000F801808301C080E0DF91CF911F910F9133
:102070000895FC010396928381832FEF3FEF348311
:102080002383968385839087878310820895FC013C
:10209000118610860895CF93DF939C01FB01DC012C
:1020A0001196CD91DC911297D383C2838C819D814F
:1020B000958384838C819D81DC0113967C936E9340
:1020C00012977D836C8331872087F90180818F5F30
:1020D0008083DF91CF9108950F931F93CF93DF9368
:1020E0008C01FB01808191818F3F2FEF920721F4BA
:1020F000E801AF81B8850EC0D801139612962D91D4
:102100003C911397E901488159818417950710F094
:10211000D901F4CF12968D919C911397938382836A
:10212000EC01FD83EC83B583A4831396FC93EE93BB
:10213000129711870087F80180818F5F8083DF917C
:10214000CF911F910F910895CF93DF93FC01A0854C
:10215000B1858281938124813581EC013D832C837B
:10216000C481D5819B838A8311968D919C9112970E
:10217000E817F90721F41296DC93CE931197118694
:1021800010868C9181508C938C91DF91CF91089522
:10219000CF92DF92EF92FF921F93CF93DF936C0168
:1021A000162FF42E8AE190E00E948E12EC01892B0A
:1021B00009F457C08091DF019091E001892B21F54E
:1021C000D093E001C093DF0187E092E00E943910D4
:1021D00080E192E00E9439108EEF91E00E94391068
:1021E00085EF91E00E94391088EE91E00E9439104D
:1021F0008EEF91E09093F4018093F30185EF91E0ED
:102200009093F2018093F101111111E0198E188E53
:102210001E8BFF8AFE01C192D1927F01CF010E94E5
:102220004710CE010C960E944710D987C887DB8BD8
:10223000CA8B82E090E0811B91099D878C878E89F3
:102240009091E701981710F48093E701F9E08F9FD0
:10225000C0011124B701895F9D4F0E944B1081E09E
:1022600001C08FEFDF91CF911F91FF90EF90DF9032
:10227000CF9008950F931F93CF93DF938B01C0915D
:10228000E501D091E601C80FD91F8091DF0190913F
:10229000E00102960E94A410E091DF01F091E001BC
:1022A000D383C2838091E5019091E601BF016E5F07
:1022B0007F4FC817D90728F48091F1019091F2015E
:1022C00004C08091F3019091F4010E946C100115FB
:1022D000110569F06091DF017091E001645F7F4F4B
:1022E000C801DF91CF911F910F910C946C10DF9179
:1022F000CF911F910F910895FF920F931F93CF934A
:10230000DF9399E0F92E8091E801882311F1F89488
:10231000E091ED01F091EE01C681D781CE010C96DE
:102320000E94A41078948E010E5F1F4FC8010E9476
:10233000A4108E899091E701981710F48093E7011B
:10234000F89EC0011124B801895F9D4F0E944B1077
:10235000DACF0E9407062091E3013091E401821B4D
:10236000930B9093E2018093E10189E0F82E209194
:10237000E1013091E2018091E5019091E6012115A2
:10238000310509F454C001969093E6018093E5016C
:10239000215031093093E2012093E101892B09F0AA
:1023A0003EC08091F3019091F4012091F1013091B0
:1023B000F2013093F4012093F3019093F2018093A2
:1023C000F1012DC00580F681E02DC681D7812A81DB
:1023D0003B818091E5019091E6018217930738F2E5
:1023E000F8948E010E5F1F4FC8010E94A4108C89C3
:1023F0009D89892B21F0CE010C960E94A41078941F
:102400008E899091E701981710F48093E701F89E68
:10241000C0011124B801895F9D4F0E944B10E091CB
:10242000F301F091F40180818111CCCFA0CF909382
:10243000E4018093E3018091E70169E0482F50E0D7
:10244000649F9001659F300D1124F901E95FFD4FF4
:10245000908191110CC0811108C01092E701DF91A9
:10246000CF911F910F91FF9008958150E7CF8093F6
:10247000E701A181B28112960D90BC91A02DB2838B
:10248000A183265F3D4FA217B30731F412968D91B9
:102490009C9113979283818389E0849FF001859FAB
:1024A000F00D1124E95FFD4F0180F281E02D86815E
:1024B00097819093E0018093DF01DC01ED91FC9125
:1024C000119757966C91DF91CF911F910F91FF90CB
:1024D00009940F931F93CF93DF93DC011596ED9131
:1024E000FC911697C681D7818E01045F1F4FC801EA
:1024F0000E94A410B80188EE91E00E944B10E09178
:10250000DF01F091E00181E02E899689291708F416
:1025100080E0DF91CF911F910F910895CF93DF93CA
:10252000EC010E9401068091190290911A02892BF8
:1025300031F48EE192E090931A0280931902209177
:102540001B0230911C02C9018C0F9D1F8B3D45E081
:10255000940770F42817390758F4C0911902D091E4
:102560001A02C20FD31F90931C0280931B0202C059
:10257000C0E0D0E00E94CD06CE01DF91CF9108955A
:10258000089510921C0210921B02089520911B02C4
:1025900030911C028BED95E0821B930B089531E185
:1025A000FC013083319722E220833197A3E3A0839B
:1025B000319760833197708331971082319760E84B
:1025C000608331971082319762E06083319763E0D6
:1025D0006083319764E06083319765E06083319771
:1025E00066E06083319767E06083319768E06083DD
:1025F000319769E06083319760E160833197308380
:10260000319732E13083319733E13083319734E1D0
:102610003083319735E13083319736E1308331971C
:1026200037E13083319738E13083319739E13083B6
:10263000319730E23083319731E230833197208314
:10264000319723E22083319740833197508331972C
:1026500026E22083319727E22083319728E22083E6
:10266000319729E22083319720E32083319721E3BA
:1026700020838697089589EF90E090938900809356
:102680008800E0E8F0E080818C7F80838BE080939D
:102690008100EFE6F0E0808182608083A091790183
:1026A000B0917A01CD91CDBFDD91DEBFFF91EF9169
:1026B000DF91CF91BF91AF919F918F917F916F915A
:1026C0005F914F913F912F911F910F91FF90EF904C
:1026D000DF90CF90BF90AF909F908F907F906F9042
:1026E0005F904F903F902F901F900F900FBE0F90D4
:1026F000089581E0089508950F920FB6F8940F920F
:102700001F9211242F923F924F925F926F927F926D
:102710008F929F92AF92BF92CF92DF92EF92FF92F1
:102720000F931F932F933F934F935F936F937F93D9
:102730008F939F93AF93BF93CF93DF93EF93FF93C9
:10274000A0917901B0917A010DB60D920EB60D925D
:102750000E948907A0917901B0917A01CD91CDBFF6
:10276000DD91DEBFFF91EF91DF91CF91BF91AF91EE
:102770009F918F917F916F915F914F913F912F9199
:102780001F910F91FF90EF90DF90CF90BF90AF908F
:102790009F908F907F906F905F904F903F902F9081
:1027A0001F900F900FBE0F9008950F920FB6F894E0
:1027B0000F921F9211242F923F924F925F926F922D
:1027C0007F928F929F92AF92BF92CF92DF92EF92C1
:1027D000FF920F931F932F933F934F935F936F93AA
:1027E0007F938F939F93AF93BF93CF93DF93EF9399
:1027F000FF93A0917901B0917A010DB60D920EB6BA
:102800000D920E94210681110E948907A0917901F1
:10281000B0917A01CD91CDBFDD91DEBFFF91EF91F7
:10282000DF91CF91BF91AF919F918F917F916F91E8
:102830005F914F913F912F911F910F91FF90EF90DA
:10284000DF90CF90BF90AF909F908F907F906F90D0
:102850005F904F903F902F901F900F900FBE0F9062
:1028600008950E94D5131895A0E1B0E0EAE3F4E1E1
:102870000C943E187C011B016A01FC011782168230
:10288000838181FF44C39E012F5F3F4F3901F701D0
:102890009381F10193FD859193FF81911F0188231D
:1028A00009F431C3853239F493FD859193FF819109
:1028B0001F01853239F4B70190E00E94201C5601B7
:1028C0006501E5CF10E0512C912CFFE1F915D8F00E
:1028D0008B3279F038F4803279F08332A1F4F92D1B
:1028E000F0612EC08D3261F0803369F4292D2160B2
:1028F0002DC0392D3260932E892D8460982E2AC0E8
:10290000E92DE86015C097FC2DC020ED280F2A3076
:1029100088F496FE06C03AE0139F200D1124122F72
:1029200019C08AE0589E200D1124522EE92DE06234
:102930009E2E10C08E3231F496FCE5C2F92DF06463
:102940009F2E08C08C3621F4292D2068922E02C0BB
:10295000883641F4F10193FD859193FF81911F0128
:102960008111B3CF9BEB980F933020F4992D906198
:10297000805E07C09BE9980F933008F066C1992DDF
:102980009F7E96FF16E09F73992E853619F490640A
:10299000992E08C0863621F4392F3068932E02C054
:1029A0001111115097FE07C01C3350F44424439476
:1029B000410E27E00BC0183038F027E017E005C0C3
:1029C00027E09CE3492E02C0212F412C560184E0D0
:1029D000A80EB11CF6016081718182819381042D62
:1029E000A3010E94A91A6C01F981FC87F0FF02C0C3
:1029F000F3FF06C091FC06C092FE06C000E205C0CF
:102A00000DE203C00BE201C000E08C858C7019F070
:102A100001115AC29BC297FE10C04C0CFC85F4FFFA
:102A200004C08A81813309F44A94141474F528E0AF
:102A3000241578F588E0482E2CC096FC2AC0812FFA
:102A400090E08C159D059CF03CEFC3163FEFD3063C
:102A500074F0892D8068982E0AC0E2E0F0E0EC0F57
:102A6000FD1FE10FF11D8081803319F41150111108
:102A7000F4CF97FE0EC044244394410E812F90E082
:102A8000C816D9062CF41C1904C04424439401C070
:102A900010E097FE06C01C141D0434F4C601019614
:102AA00005C085E090E002C081E090E00111019650
:102AB000112331F0212F30E02F5F3F4F820F931F02
:102AC000252D30E08217930714F4581A01C0512CB9
:102AD000892D897049F4552039F0B70180E290E0E2
:102AE0000E94201C5A94F7CF002329F0B701802FB1
:102AF00090E00E94201C93FC09C0552039F0B701DA
:102B000080E390E00E94201C5A94F7CF97FE4CC0BF
:102B10004601D7FE02C0812C912CC6018819990963
:102B2000F301E80FF91FFE87ED879601241931099B
:102B3000388B2F87012F10E01195019511093FEF78
:102B40008316930629F4B7018EE290E00E94201CC0
:102B5000C814D9044CF08F8598898815990524F4F8
:102B6000ED85FE85818101C080E3F1E08F1A910837
:102B70002D853E852F5F3F4F3E872D87801691061E
:102B80002CF0B70190E00E94201CD9CFC814D904C2
:102B900041F49A81963320F4953319F43C8534FF3F
:102BA00081E3B70190E04EC08A81813319F09C85A2
:102BB0009F7E9C87B70190E00E94201C111105C0E8
:102BC00094FC18C085E690E017C0B7018EE290E053
:102BD0000E94201C1E5F82E001E0080FF301E80F55
:102BE000F11D8081B70190E00E94201C802F01130D
:102BF000F3CFE6CF85E490E0B7010E94201CD7FC1C
:102C000006C0C114D10441F4EC85E4FF05C0D194A1
:102C1000C194D1088DE201C08BE2B70190E00E941F
:102C2000201C80E32AE0C216D1042CF08F5FFAE06A
:102C3000CF1AD108F7CFB70190E00E94201CB7014E
:102C4000C601C0960E94201C54C1833631F08337E0
:102C500079F0833509F056C020C0560132E0A30E4A
:102C6000B11CF6018081898301E010E0630112C08C
:102C70005601F2E0AF0EB11CF601C080D18096FE85
:102C800003C0612F70E002C06FEF7FEFC6010E94AA
:102C9000A81B8C01F92DFF7714C0560122E0A20E6B
:102CA000B11CF601C080D18096FE03C0612F70E098
:102CB00002C06FEF7FEFC6010E94811B8C01F92DCE
:102CC000F0689F2EF3FD1AC0852D90E008171907B4
:102CD000A8F4B70180E290E00E94201C5A94F4CF3F
:102CE000F60197FC859197FE81916F01B70190E005
:102CF0000E94201C51105A94015011090115110510
:102D000079F7F7C0843611F0893661F5560197FEE0
:102D100009C024E0A20EB11CF6016081718182819C
:102D200093810AC0F2E0AF0EB11CF601608171819F
:102D3000072E000C880B990BF92DFF769F2E97FF1D
:102D400009C090958095709561957F4F8F4F9F4FEB
:102D5000F0689F2E2AE030E0A3010E94721CC82E6A
:102D6000C6183FC0092D853721F40F7E2AE030E0D8
:102D70001DC0097F8F3691F018F4883559F0C3C013
:102D8000803719F0883711F0BEC0006104FF09C018
:102D9000046007C094FE08C0066006C028E030E06A
:102DA00005C020E130E002C020E132E0560107FF1B
:102DB00009C084E0A80EB11CF60160817181828196
:102DC000938108C0F2E0AF0EB11CF6016081718101
:102DD00080E090E0A3010E94721CC82EC6180F77F5
:102DE000902E96FE0BC0092D0E7FC11650F494FE56
:102DF0000AC092FC08C0092D0E7E05C0DC2C092DEE
:102E000003C0DC2C01C0D12E04FF0DC0FE01EC0D6F
:102E1000F11D8081803311F4097E09C002FF06C0D4
:102E2000D394D39404C0802F867809F0D39403FD03
:102E300011C000FF06C01C2DD51480F4150D1D19FE
:102E40000DC0D51458F4B70180E290E00E94201C18
:102E5000D394F7CFD51410F45D1801C0512C04FFA2
:102E600010C0B70180E390E00E94201C02FF17C051
:102E700001FD03C088E790E002C088E590E0B7015B
:102E80000CC0802F867859F001FF02C08BE201C090
:102E900080E207FD8DE2B70190E00E94201CC11680
:102EA00038F4B70180E390E00E94201C1150F7CF66
:102EB000CA94F301EC0DF11D8081B70190E00E94EE
:102EC000201CC110F5CF15C0F4E0F51560F584E0C5
:102ED000581A93FE1FC0011127C02C8523FF2AC05A
:102EE00008E610E0392D3071932EF801849181119C
:102EF00024C0552009F4E4CCB70180E290E00E94A0
:102F0000201C5A94F6CFF7018681978126C08FEF57
:102F10009FEF23C0B70180E290E00E94201C5A94EA
:102F20005110F8CFD8CF512CB701802F90E00E94DC
:102F3000201CD3CF0CE610E0D5CF91108052B70102
:102F400090E00E94201C0F5F1F4FCFCF23E025157C
:102F500010F483E0BDCF512CC0CF6096E2E10C9419
:102F60005A18EF92FF920F93CF93DF9300D000D0C7
:102F7000CDB7DEB70E944A02EDEFF7E082E091E0C4
:102F8000958384839383828391838083CE01039688
:102F90007C0102E020E030E04CE251E067E671E0C5
:102FA0008CEF90E00E94ED03CE0101967C0120E0C1
:102FB00030E04CE251E06DE671E08AEC91E00E9475
:102FC000ED030E94D20580E090E00F900F900F90EB
:102FD0000F90DF91CF910F91FF90EF900895AA1B72
:102FE000BB1B51E107C0AA1FBB1FA617B70710F0F4
:102FF000A61BB70B881F991F5A95A9F78095909526
:10300000BC01CD01089597FB072E16F4009407D05C
:1030100077FD09D00E94EF1707FC05D03EF490958C
:1030200081959F4F0895709561957F4F0895052E66
:1030300097FB1EF400940E942E1857FD07D00E94A3
:10304000751807FC03D04EF40C942E18509540953B
:10305000309521953F4F4F4F5F4F08959095809544
:10306000709561957F4F8F4F9F4F0895B7FF0C94D8
:1030700097180E949718821B930B08952F923F92E6
:103080004F925F926F927F928F929F92AF92BF9278
:10309000CF92DF92EF92FF920F931F93CF93DF9324
:1030A000CDB7DEB7CA1BDB0B0FB6F894DEBF0FBE81
:1030B000CDBF09942A88398848885F846E847D84CE
:1030C0008C849B84AA84B984C884DF80EE80FD80D0
:1030D0000C811B81AA81B981CE0FD11D0FB6F89446
:1030E000DEBF0FBECDBFED010895A1E21A2EAA1BCF
:1030F000BB1BFD010DC0AA1FBB1FEE1FFF1FA217A8
:10310000B307E407F50720F0A21BB30BE40BF50BA4
:10311000661F771F881F991F1A9469F7609570952D
:10312000809590959B01AC01BD01CF0108950E944F
:10313000A218A59F900DB49F900DA49F800D911D86
:1031400011240895A29FB001B39FC001A39F700DE9
:10315000811D1124911DB29F700D811D1124911D9F
:1031600008955058BB27AA270E94C9180C94E41947
:103170000E94D61938F00E94DD1920F039F49F3FE3
:1031800019F426F40C94D3190EF4E095E7FB0C9493
:10319000CD19E92F0E94F51958F3BA176207730782
:1031A0008407950720F079F4A6F50C94171A0EF40D
:1031B000E0950B2EBA2FA02D0B01B90190010C0147
:1031C000CA01A0011124FF27591B99F0593F50F45F
:1031D000503E68F11A16F040A22F232F342F4427B7
:1031E000585FF3CF469537952795A795F0405395AF
:1031F000C9F77EF41F16BA0B620B730B840BBAF07F
:103200009150A1F0FF0FBB1F661F771F881FC2F7E9
:103210000EC0BA0F621F731F841F48F487957795FD
:103220006795B795F7959E3F08F0B0CF9395880FB7
:1032300008F09927EE0F9795879508950E94321907
:103240000C94E4190E94DD1958F00E94D61940F040
:1032500029F45F3F29F00C94CD1951110C94181AE0
:103260000C94D3190E94F51968F39923B1F35523EF
:1032700091F3951B550BBB27AA2762177307840789
:1032800038F09F5F5F4F220F331F441FAA1FA9F31F
:1032900035D00E2E3AF0E0E832D091505040E6950D
:1032A000001CCAF72BD0FE2F29D0660F771F881F6E
:1032B000BB1F261737074807AB07B0E809F0BB0B61
:1032C000802DBF01FF2793585F4F3AF09E3F510575
:1032D00078F00C94CD190C94181A5F3FE4F3983EE3
:1032E000D4F3869577956795B795F7959F5FC9F75E
:1032F000880F911D9695879597F90895E1E0660FDF
:10330000771F881FBB1F621773078407BA0720F057
:10331000621B730B840BBA0BEE1F88F7E0950895C0
:10332000E89409C097FB3EF490958095709561955F
:103330007F4F8F4F9F4F9923A9F0F92F96E9BB2715
:103340009395F695879577956795B795F111F8CF91
:10335000FAF4BB0F11F460FF1BC06F5F7F4F8F4FFC
:103360009F4F16C0882311F096E911C0772321F0F2
:103370009EE8872F762F05C0662371F096E8862F8A
:1033800070E060E02AF09A95660F771F881FDAF7E1
:10339000880F9695879597F9089597F99F6780E824
:1033A00070E060E008959FEF80EC089500240A9497
:1033B0001616170618060906089500240A94121610
:1033C0001306140605060895092E0394000C11F443
:1033D000882352F0BB0F40F4BF2B11F460FF04C0F0
:1033E0006F5F7F4F8F4F9F4F089557FD9058440F49
:1033F000551F59F05F3F71F04795880F97FB991F54
:1034000061F09F3F79F08795089512161306140610
:10341000551FF2CF4695F1DF08C01616170618069D
:10342000991FF1CF86957105610508940895E89478
:10343000BB2766277727CB0197F908950E94311A99
:103440000C94E4190E94D61938F00E94DD1920F07E
:10345000952311F00C94CD190C94D31911240C94CC
:10346000181A0E94F51970F3959FC1F3950F50E05B
:10347000551F629FF001729FBB27F00DB11D639F26
:10348000AA27F00DB11DAA1F649F6627B00DA11DCC
:10349000661F829F2227B00DA11D621F739FB00D72
:1034A000A11D621F839FA00D611D221F749F3327E2
:1034B000A00D611D231F849F600D211D822F762F7B
:1034C0006A2F11249F5750409AF0F1F088234AF058
:1034D000EE0FFF1FBB1F661F771F881F91505040C4
:1034E000A9F79E3F510580F00C94CD190C94181A41
:1034F0005F3FE4F3983ED4F3869577956795B7954B
:10350000F795E7959F5FC1F7FE2B880F911D969564
:10351000879597F90895FC0188279927E8942191C8
:103520002032E9F3293010F02E30C8F32B3241F06D
:103530002D3239F4689404C00E94DA1B820F911D69
:10354000219120532A30C0F31EF4909581959F4F0E
:103550000895283008F027E03327DA01990F311D4C
:1035600087FD916000966105710539F432602E5F28
:103570003D9330E32A95E1F708959F3F30F080387E
:103580007105610509F03C5F3C5F3D93913008F0A7
:103590008068911DDF93CF931F930F93FF92EF925B
:1035A000192F987F9695E92F96959695E90FFF2705
:1035B000E653FF4F99273327EE24FF24A701E701A5
:1035C00005900894079428F4360FE71EF81E491F4B
:1035D000511D660F771F881F991F0694A1F705904C
:1035E000079428F4E70EF81E491F561FC11D770FD8
:1035F000881F991F661F0694A1F70590079428F469
:10360000F80E491F561FC71FD11D880F991F661F2F
:10361000771F0694A1F70590079420F4490F561FD1
:10362000C71FD81F990F661F771F881F0694A9F719
:1036300084911095177041F0D695C7955795479589
:10364000F794E7941A95C1F7E0E7F0E068941590D5
:10365000159135916591959105907FE27395E118EB
:10366000F10A430B560BC90BD009C0F7E10CF11E50
:10367000431F561FC91FD01D7EF4703311F48A9565
:10368000E6CFE894015030F0080F0AF40027021743
:1036900008F4202F2395022F7A3328F079E37D93C5
:1036A0002A95E9F710C07D932A9589F60694979597
:1036B0006795379517951794E118F10A430B560B48
:1036C000C90BD00998F023957E9173957A3308F051
:1036D00070E37C932013B8F77E9170617D9330F096
:1036E000839571E37D9370E32A95E1F71124EF90C0
:1036F000FF900F911F91CF91DF91992787FD9095B2
:103700000895FC010590615070400110D8F7809534
:1037100090958E0F9F1F089549EF57E00E94B31BAD
:103720000895FB01DC0102C001900D924150504010
:10373000D8F70895FB01DC014150504030F08D91E5
:103740000190801919F40020B9F7881B990B08958E
:10375000FC016150704001900110D8F78095909560
:103760008E0F9F1F0895FA01A191B081009719F45F
:103770001097E1F0CD01DC01CD010D90002011F496
:10378000C00113C0FB012191222319F02015D9F7A4
:10379000F3CFFB012191201519F41E92119606C05A
:1037A0002223C1F70D900020A1F7D001FA01A193C7
:1037B000B08308957AE0979F902D879F802D910D7B
:1037C00011240895CF93DF93EC012B8120FF33C0A8
:1037D00026FF0AC02F7B2B838E819F8101969F83BA
:1037E0008E838A8190E029C022FF0FC0E881F98191
:1037F0008081082E000C990B009719F420622B830E
:103800001AC03196F983E8830EC0EA85FB850995D5
:1038100097FF09C02B81019611F080E201C080E181
:10382000822B8B8308C02E813F812F5F3F4F3F83C8
:103830002E83992702C08FEF9FEFDF91CF910895DC
:103840000F931F93CF93DF93FB01238121FD03C0CF
:103850008FEF9FEF2CC022FF16C046815781248135
:1038600035814217530744F4A081B1819D012F5F38
:103870003F4F318320838C93268137812F5F3F4FC9
:103880003783268314C08B01EC01FB010084F18592
:10389000E02D0995892BE1F6D80116968D919C9122
:1038A0001797019617969C938E931697CE01DF91EA
:1038B000CF911F910F910895A0E0B0E0E2E6FCE106
:1038C0000C944E18AE014B5F5F4FFA0161917191FC
:1038D000AF018091FF07909100080E943414E2E04C
:1038E0000C946A18FA01AA27283051F1203181F18D
:1038F000E8946F936E7F6E5F7F4F8F4F9F4FAF4FF8
:10390000B1E03ED0B4E03CD0670F781F891F9A1F0A
:10391000A11D680F791F8A1F911DA11D6A0F711DBE
:10392000811D911DA11D20D009F468943F912AE0CA
:10393000269F11243019305D3193DEF6CF010895B2
:10394000462F4770405D4193B3E00FD0C9F7F6CFE3
:10395000462F4F70405D4A3318F0495D31FD4052AB
:10396000419302D0A9F7EACFB4E0A6959795879541
:1039700077956795BA95C9F7009761057105089520
:103980009B01AC010A2E06945795479537952795CC
:10399000BA95C9F7620F731F841F951FA01D089564
:0439A000F894FFCFC9
:1039A400140000000003000000005902620200003D
:1039B40050696420636F6E74726F6C6C65722076EC
:1039C400616C75653A2025642C204F4352324120A6
:1039D40025640D0A00200074656D700043757272D1
:1039E400656E742074656D703A20252E32660D0A5A
:1039F400006368616E6765005365742074656D705B
:103A04003A2025640D0A0074726163650073686965
:083A140066740049444C4500B2
:00000001FF
