:100000000C9461000C947E000C947E000C947E0095
:100010000C947E000C947E000C947E000C947E0068
:100020000C947E000C947E000C947E000C947E0058
:100030000C947E000C947E000C947E000C947E0048
:100040000C947E000C947E000C947E000C947E0038
:100050000C947E000C947E000C947E000C947E0028
:100060000C947E000C947E0008000000BE9224498F
:10007000123EABAAAA2ABECDCCCC4C3E00000080DA
:10008000BEABAAAAAA3E00000000BF000000803F4D
:100090000000000000084178D3BB4387D1133D190D
:1000A0000E3CC3BD4282AD2B3E68EC8276BED98F3A
:1000B000E1A93E4C80EFFFBE01C4FF7F3F0000007E
:1000C000000011241FBECFEFD8E0DEBFCDBF11E08E
:1000D000A0E0B1E0EEE3F0E102C005900D92A031A6
:1000E000B107D9F721E0A0E1B1E001C01D92A4322F
:1000F000B207E1F70E94A0000C941D080C940000C8
:100100009091C00095FFFCCF8093C60080E090E006
:1001100008958091C00087FFFCCF8091C60090E0D9
:10012000089587E690E09093C5008093C4001092F4
:10013000C00088E18093C10086E08093C2000895EA
:10014000CF93DF9300D000D0CDB7DEB78091C10050
:1001500088618093C10087E690E09093C50080930A
:10016000C4001092C00088E18093C10086E08093B3
:10017000C20080E191E020E830E030931901209343
:10018000180129E830E030931B0120931A0123E085
:100190002093130110921D0110921C0190932301D2
:1001A00080932201909321018093200190931F015D
:1001B00080931E0180E480937C0080917C00807F8E
:1001C00080937C0081E080937E0087E080937A00BA
:1001D00080917A00806880937A001EE280917A0094
:1001E000806480937A0080917A0084FFFCCF8091B4
:1001F0007A00806180937A00609178007091790034
:1002000080E090E00E94210323E333E343EA5BE3D1
:100210000E9457046B017C019B01AC0163E373E313
:1002200083EA90E40E940C02A70196010E947902E1
:1002300020E030E44CE156E40E94570420E030EE28
:1002400042E955E40E9479020E940F046B017C018F
:1002500080E091E09F938F930E940F0529EC3FE28D
:1002600045E951E4C701B6010E940D029B01AC01B2
:1002700060E070EC8DEA95E40E94790223E333E9B3
:1002800048E853E40E940C0220E030E048EC52E4DD
:100290000E9457040E94C40420E030E048EC52E47D
:1002A0000E9479026B017C0120E030E040E251E4E1
:1002B0000E9479024B015C0120E030E040E452E40E
:1002C0000E940D0220E030E048EE51E40E940C0252
:1002D0000E94EB020F900F908091C00085FFFCCF31
:1002E0006093C600C501B4010E945E032B013C016E
:1002F00020E030E040E452E4C701B6010E940D0264
:100300004B015C0120E030E040E251E4C301B20166
:100310000E9457049B01AC01C501B4010E940C026C
:100320000E94EB028091C00085FFFCCF6093C60065
:100330008091C00085FFFCCF1093C60020E030E024
:1003400040E251E4C701B6010E9457044B015C0131
:10035000C701B6010E945E032B013C0120E030E0A2
:1003600040E452E4C501B4010E940D0269837A831E
:100370008B839C8320E030E040E251E4C301B20172
:100380000E9457049B01AC0169817A818B819C8119
:100390000E940C020E94EB028091C00085FFFCCFFE
:1003A0006093C600C501B4010E945E034B015C016D
:1003B00020E030E048EC52E4C701B6010E94570447
:1003C00020E030E040E452E40E940D026B017C0129
:1003D00020E030E040E251E4C501B4010E9457043E
:1003E0009B01AC01C701B6010E940C020E94EB0206
:1003F0008091C00085FFFCCF6093C6008EE091E045
:100400000E9425058FEF93ED20E38150904020401E
:10041000E1F700C00000E2CE5058BB27AA270E9497
:1004200024020C94B5030E94A70338F00E94AE0387
:1004300020F039F49F3F19F426F40C94A4030EF431
:10044000E095E7FB0C947503E92F0E94C60358F36F
:10045000BA17620773078407950720F079F4A6F5A9
:100460000C9400040EF4E0950B2EBA2FA02D0B0176
:10047000B90190010C01CA01A0011124FF27591BE9
:1004800099F0593F50F4503E68F11A16F040A22FEF
:10049000232F342F4427585FF3CF46953795279560
:1004A000A795F0405395C9F77EF41F16BA0B620B5F
:1004B000730B840BBAF09150A1F0FF0FBB1F661FA6
:1004C000771F881FC2F70EC0BA0F621F731F841FE9
:1004D00048F4879577956795B795F7959E3F08F00F
:1004E000B0CF9395880F08F09927EE0F97958795D1
:1004F00008950E948D020C94B5030E94AE0358F03B
:100500000E94A70340F029F45F3F29F00C94750383
:1005100051110C9401040C94A4030E94C60368F3C7
:100520009923B1F3552391F3951B550BBB27AA27AC
:1005300062177307840738F09F5F5F4F220F331FE6
:10054000441FAA1FA9F335D00E2E3AF0E0E832D0AE
:1005500091505040E695001CCAF72BD0FE2F29D0B1
:10056000660F771F881FBB1F261737074807AB0783
:10057000B0E809F0BB0B802DBF01FF2793585F4FF8
:100580003AF09E3F510578F00C9475030C940104E9
:100590005F3FE4F3983ED4F3869577956795B795DA
:1005A000F7959F5FC9F7880F911D9695879597F9E5
:1005B0000895E1E0660F771F881FBB1F621773075E
:1005C0008407BA0720F0621B730B840BBA0BEE1F73
:1005D00088F7E09508950E94F2026894B1110C9496
:1005E000010408950E94CE0388F09F5798F0B92F18
:1005F0009927B751B0F0E1F0660F771F881F991F58
:100600001AF0BA95C9F714C0B13091F00E940004F5
:10061000B1E008950C940004672F782F8827B85F05
:1006200039F0B93FCCF3869577956795B395D9F7AF
:100630003EF490958095709561957F4F8F4F9F4FB9
:100640000895E89409C097FB3EF4909580957095C5
:1006500061957F4F8F4F9F4F9923A9F0F92F96E90E
:10066000BB279395F695879577956795B795F11183
:10067000F8CFFAF4BB0F11F460FF1BC06F5F7F4F20
:100680008F4F9F4F16C0882311F096E911C0772332
:1006900021F09EE8872F762F05C0662371F096E83B
:1006A000862F70E060E02AF09A95660F771F881F0A
:1006B000DAF7880F9695879597F908950E94E803D1
:1006C00090F09F3748F4911116F00C94010460E00B
:1006D00070E080E89FEB089526F41B16611D711DE4
:1006E000811D0C947B030C94960397F99F6780E817
:1006F00070E060E00895882371F4772321F098502A
:10070000872B762F07C0662311F499270DC09051CF
:10071000862B70E060E02AF09A95660F771F881F9D
:10072000DAF7880F9695879597F908959F3F31F0EE
:10073000915020F4879577956795B795880F911D0F
:100740009695879597F908959FEF80EC089500247A
:100750000A941616170618060906089500240A9426
:1007600012161306140605060895092E0394000CAC
:1007700011F4882352F0BB0F40F4BF2B11F460FF3B
:1007800004C06F5F7F4F8F4F9F4F089557FD905864
:10079000440F551F59F05F3F71F04795880F97FB45
:1007A000991F61F09F3F79F08795089512161306FF
:1007B0001406551FF2CF4695F1DF08C0161617062E
:1007C0001806991FF1CF8695710561050894089563
:1007D0000E94CE03A0F0BEE7B91788F4BB279F386C
:1007E00060F41616B11D672F782F8827985FF7CF12
:1007F000869577956795B11D93959639C8F30895B9
:10080000E894BB2766277727CB0197F9089516F060
:100810000C9496030C94A40368940C9475030E94A2
:10082000CE03A8F39923C1F3AEF3DF93CF931F93C5
:100830000F93FF92C92FDD2788232AF02197660F97
:10084000771F881FDAF720E030E040E85FEB9FE396
:10085000883920F0803E38F021968F770E940D0273
:10086000E8E6F0E004C00E940D02E5E9F0E00E9435
:10087000E8048B01BE01EC01FB2E6F5771097595E1
:10088000771F880B990B0E94230328E132E741E38D
:100890005FE30E946A04AF2D9801AE01FF900F91B3
:1008A0001F91CF91DF910E9424020C94B5030E9406
:1008B0006A040C94B5030E94A70338F00E94AE03AB
:1008C00020F0952311F00C9475030C94A4031124CB
:1008D0000C9401040E94C60370F3959FC1F3950F19
:1008E00050E0551F629FF001729FBB27F00DB11DB4
:1008F000639FAA27F00DB11DAA1F649F6627B00D44
:10090000A11D661F829F2227B00DA11D621F739F2C
:10091000B00DA11D621F839FA00D611D221F749F3A
:100920003327A00D611D231F849F600D211D822F81
:10093000762F6A2F11249F5750409AF0F1F08823A8
:100940004AF0EE0FFF1FBB1F661F771F881F9150D5
:100950005040A9F79E3F510580F00C9475030C940C
:1009600001045F3FE4F3983ED4F38695779567954D
:10097000B795F795E7959F5FC1F7FE2B880F911DFF
:100980009695879597F908950E94CE03E8F09E37D3
:10099000E8F09639B8F49E3848F4672F782F882706
:1009A000985FF9CF86957795679593959539D0F3AC
:1009B000B62FB1706B0F711D811D20F4879577954F
:1009C000679593950C947B030C9496030C94010407
:1009D000DF93CF931F930F93FF92EF92DF927B01F0
:1009E0008C01689406C0DA2EEF010E946A04FE01B1
:1009F000E894A5912591359145915591A6F3EF0184
:100A00000E942402FE019701A801DA9469F7DF90A1
:100A1000EF90FF900F911F91CF91DF910895A0E08B
:100A2000B0E0E5E1F5E00C94F607AE014B5F5F4FF7
:100A3000FA0161917191AF018091200190912101A2
:100A40000E945505E2E00C9412080F931F93CF9378
:100A5000DF93E0912001F0912101238121FF1BC050
:100A60008C01D0E0C0E0F80181918F0160912001FC
:100A700070912101DB011896ED91FC911997882363
:100A800031F00995892B79F3DFEFCFEFECCF8AE0D6
:100A90000995892B19F08FEF9FEF02C08D2F9C2FA6
:100AA000DF91CF911F910F910895ABE0B0E0EBE59E
:100AB000F5E00C94E6076C017B018A01FC011782CA
:100AC0001682838181FFCCC1CE0101963C01F601E3
:100AD0009381F70193FD859193FF81917F01882395
:100AE00009F4BAC1853239F493FD859193FF819160
:100AF0007F01853229F4B60190E00E944C07E7CFD0
:100B0000912C212C312CFFE1F315D8F08B3279F0A8
:100B100038F4803279F08332A1F4232D20611DC096
:100B20008D3261F0803369F4232D216016C0832D4E
:100B30008260382EE32DE4603E2E2AC0F32DF8604B
:100B40001DC037FC2DC020ED280F2A3040F08E321A
:100B5000B9F436FC81C1232D2064322E19C036FE33
:100B600006C08AE0989E200D1124922E11C0EAE062
:100B70002E9E200D1124222EF32DF0623F2E08C050
:100B80008C3621F4832D8068382E02C0883641F4DB
:100B9000F70193FD859193FF81917F018111B3CF7F
:100BA000982F9F7D9554933028F40C5F1F4F9FE33F
:100BB00099830DC0833631F0833771F0833509F0A6
:100BC00059C021C0F801808189830E5F1F4F88249E
:100BD0008394912C530113C02801F2E04F0E511C55
:100BE000F801A080B18036FE03C0692D70E002C01C
:100BF0006FEF7FEFC5010E9441074C018201F32D89
:100C0000FF773F2E16C0280122E0420E511CF8014A
:100C1000A080B18036FE03C0692D70E002C06FEF86
:100C20007FEFC5010E9436074C01F32DF0683F2E7F
:100C3000820133FC1BC0822D90E088169906B0F427
:100C4000B60180E290E00E944C072A94F4CFF501AF
:100C500037FC859137FE81915F01B60190E00E94DB
:100C60004C0721102A9421E0821A910881149104E2
:100C700071F7E8C0843611F0893641F5F80137FE86
:100C800007C060817181828193810C5F1F4F08C012
:100C900060817181072E000C880B990B0E5F1F4F2E
:100CA000F32DFF763F2E97FF09C0909580957095A4
:100CB00061957F4F8F4F9F4FF0683F2E2AE030E0C5
:100CC000A3010E948807882E861845C0853731F415
:100CD000232D2F7EB22E2AE030E025C0932D997F60
:100CE000B92E8F36C1F018F4883579F0B5C0803749
:100CF00019F0883721F0B0C0E92FE061BE2EB4FEB4
:100D00000DC0FB2DF460BF2E09C034FE0AC0292F90
:100D10002660B22E06C028E030E005C020E130E0B9
:100D200002C020E132E0F801B7FE07C060817181A6
:100D3000828193810C5F1F4F06C06081718180E0CA
:100D400090E00E5F1F4FA3010E948807882E86182F
:100D5000FB2DFF773F2E36FE0DC0232D2E7FA22EBA
:100D6000891458F434FE0BC032FC09C0832D8E7EEA
:100D7000A82E05C0B82CA32C03C0B82C01C0B92CD8
:100D8000A4FE0FC0FE01E80DF11D8081803321F427
:100D90009A2D997EA92E09C0A2FE06C0B394B394E1
:100DA00004C08A2D867809F0B394A3FC11C0A0FE7C
:100DB00006C0B21488F4280C922C9B180EC0B214F2
:100DC00060F4B60180E290E00E944C07B394F7CF44
:100DD000B21418F42B1802C0982C212CA4FE10C0B9
:100DE000B60180E390E00E944C07A2FE17C0A1FC70
:100DF00003C088E790E002C088E590E0B6010CC02F
:100E00008A2D867859F0A1FE02C08BE201C080E2F3
:100E1000A7FC8DE2B60190E00E944C07891438F4DB
:100E2000B60180E390E00E944C079A94F7CF8A9431
:100E3000F301E80DF11D8081B60190E00E944C079E
:100E40008110F5CF222009F442CEB60180E290E075
:100E50000E944C072A94F6CFF6018681978102C042
:100E60008FEF9FEF2B96E2E10C940208FC010590B6
:100E7000615070400110D8F7809590958E0F9F1F9C
:100E80000895FC016150704001900110D8F78095E1
:100E900090958E0F9F1F08950F931F93CF93DF930D
:100EA000FB01238121FD03C08FEF9FEF2CC022FFA8
:100EB00016C046815781248135814217530744F477
:100EC000A081B1819D012F5F3F4F318320838C939F
:100ED000268137812F5F3F4F3783268314C08B01D4
:100EE000EC01FB010084F185E02D0995892BE1F6E9
:100EF000D80116968D919C911797019617969C9301
:100F00008E931697CE01DF91CF911F910F91089587
:100F1000FA01AA27283051F1203181F1E8946F932A
:100F20006E7F6E5F7F4F8F4F9F4FAF4FB1E03ED0D0
:100F3000B4E03CD0670F781F891F9A1FA11D680F6E
:100F4000791F8A1F911DA11D6A0F711D811D911DA1
:100F5000A11D20D009F468943F912AE0269F112416
:100F60003019305D3193DEF6CF010895462F47707A
:100F7000405D4193B3E00FD0C9F7F6CF462F4F70D5
:100F8000405D4A3318F0495D31FD4052419302D033
:100F9000A9F7EACFB4E0A6959795879577956795D9
:100FA000BA95C9F700976105710508959B01AC01D9
:100FB0000A2E06945795479537952795BA95C9F700
:100FC000620F731F841F951FA01D08952F923F92DB
:100FD0004F925F926F927F928F929F92AF92BF9249
:100FE000CF92DF92EF92FF920F931F93CF93DF93F5
:100FF000CDB7DEB7CA1BDB0B0FB6F894DEBF0FBE52
:10100000CDBF09942A88398848885F846E847D849E
:101010008C849B84AA84B984C884DF80EE80FD80A0
:101020000C811B81AA81B981CE0FD11D0FB6F89416
:0E103000DEBF0FBECDBFED010895F894FFCFD7
:10103E0054656D70657261747572653A09000D00C4
:00000001FF
