:100000000C9434000C9446000C9446000C9446006A
:100010000C9446000C9446000C9446000C94460048
:100020000C9446000C9446000C9446000C94460038
:100030000C9446000C9446000C9446000C94460028
:100040000C9446000C9446000C9446000C94460018
:100050000C9446000C9476000C9446000C944600D8
:100060000C9446000C94460011241FBECFEFD8E03C
:10007000DEBFCDBF21E0A0E0B1E001C01D92A43100
:10008000B207E1F70E94B6000C9417010C9400002F
:100090009091C00095FFFCCF8093C60080E090E077
:1000A00008958091C00087FFFCCF8091C60090E04A
:1000B000089587E690E09093C5008093C400109265
:1000C000C00088E18093C10086E08093C20008955B
:1000D000ECE7F0E080E4808380818083EAE7F0E071
:1000E0008FE2808380818068808308951F920F92C1
:1000F0000FB60F9211242F933F936F937F938F939B
:100100009F93AF93BF93EF93FF93EAE7F0E0808173
:10011000806180832091780030917900ADECBCEC57
:100120000E940801969587959695879590938900EA
:1001300080938800FF91EF91BF91AF919F918F9134
:100140007F916F913F912F910F900FBE0F901F9055
:10015000189583E4809380008CE18093810088EC83
:1001600090E090938900809388000895219A83E419
:10017000809380008CE18093810088EC90E09093E4
:1001800089008093880087E690E09093C500809373
:10019000C4001092C00088E18093C10086E0809383
:1001A000C20080E091E028E430E030930901209320
:1001B000080121E530E030930B0120930A0123E090
:1001C0002093030110920D0110920C0190931301E2
:1001D00080931201909311018093100190930F016D
:1001E00080930E0180E480937C0080917C0080935A
:1001F0007C008FE280937A0080917A0080688093FF
:100200007A00789480917A00806480937A00FFCF9E
:10021000A29FB001B39FC001A39F700D811D112447
:10022000911DB29F700D811D1124911D0895F894A8
:02023000FFCFFE
:00000001FF
